{
  "contractName": "ODTAPaiement",
  "abi": [
    {
      "payable": true,
      "stateMutability": "payable",
      "type": "fallback"
    },
    {
      "constant": false,
      "inputs": [],
      "name": "withdraw",
      "outputs": [],
      "payable": false,
      "stateMutability": "nonpayable",
      "type": "function"
    },
    {
      "constant": false,
      "inputs": [
        {
          "internalType": "uint256",
          "name": "amount",
          "type": "uint256"
        }
      ],
      "name": "deposit",
      "outputs": [],
      "payable": true,
      "stateMutability": "payable",
      "type": "function"
    },
    {
      "constant": true,
      "inputs": [],
      "name": "getBalance",
      "outputs": [
        {
          "internalType": "uint256",
          "name": "",
          "type": "uint256"
        }
      ],
      "payable": false,
      "stateMutability": "view",
      "type": "function"
    }
  ],
  "bytecode": "0x608060405234801561001057600080fd5b5061012c806100206000396000f3fe60806040526004361060305760003560e01c806312065fe01460325780633ccfd60b14605a578063b6b55f2514606e575b005b348015603d57600080fd5b5060446099565b6040518082815260200191505060405180910390f35b348015606557600080fd5b50606c60a1565b005b609760048036036020811015608257600080fd5b810190808035906020019092919050505060e9565b005b600047905090565b3373ffffffffffffffffffffffffffffffffffffffff166108fc479081150290604051600060405180830381858888f1935050505015801560e6573d6000803e3d6000fd5b50565b80341460f457600080fd5b5056fea265627a7a72315820bff4dea5a196787148b052e12afe4ac3df375070a3abbaa88fd5b9e0b1e8953964736f6c63430005100032",
  "source": "// SPDX-License-Identifier: EUPL V1.2\npragma solidity <=0.8.0;\n\ncontract ODTAPaiement{\n    \n    function withdraw() public {\n        msg.sender.transfer(address(this).balance);\n    }\n     \n     function() payable external {\n        // nothing to do!\n    }\n    \n     function deposit(uint256 amount) payable public {\n        require(msg.value == amount);\n        // nothing else to do!\n    }\n    function getBalance() public view returns (uint256) {\n        return address(this).balance;\n    }\n\n}",
  "sourcePath": "/Users/lemaima/Documents/devTest/TrustedDistributedOpenDataRegistry/contracts/ODTAPaiement.sol",
  "compiler": {
    "name": "solc",
    "version": "0.5.16+commit.9c3226ce.Emscripten.clang"
  },
  "schemaVersion": "3.3.1",
  "updatedAt": "2020-11-02T18:03:57.560Z",
  "devdoc": {
    "methods": {}
  },
  "userdoc": {
    "methods": {}
  }
}