{
  "contractName": "ODTAValidator",
  "abi": [
    {
      "inputs": [],
      "stateMutability": "nonpayable",
      "type": "constructor"
    },
    {
      "anonymous": false,
      "inputs": [
        {
          "indexed": false,
          "internalType": "address",
          "name": "_dataAssetProducerID",
          "type": "address"
        },
        {
          "indexed": false,
          "internalType": "address",
          "name": "_dataAssetConsumerID",
          "type": "address"
        },
        {
          "indexed": false,
          "internalType": "bytes32",
          "name": "_dataAssetID",
          "type": "bytes32"
        },
        {
          "indexed": false,
          "internalType": "uint256",
          "name": "value",
          "type": "uint256"
        }
      ],
      "name": "eventDataAccessPaidFailure",
      "type": "event"
    },
    {
      "anonymous": false,
      "inputs": [
        {
          "indexed": false,
          "internalType": "address",
          "name": "_dataAssetProducerID",
          "type": "address"
        },
        {
          "indexed": false,
          "internalType": "address",
          "name": "_dataAssetConsumerID",
          "type": "address"
        },
        {
          "indexed": false,
          "internalType": "bytes32",
          "name": "_dataAssetID",
          "type": "bytes32"
        },
        {
          "indexed": false,
          "internalType": "uint256",
          "name": "value",
          "type": "uint256"
        }
      ],
      "name": "eventDataAccessPaidSuccessfull",
      "type": "event"
    },
    {
      "anonymous": false,
      "inputs": [
        {
          "indexed": false,
          "internalType": "address",
          "name": "_dataAssetProducerID",
          "type": "address"
        },
        {
          "indexed": false,
          "internalType": "address",
          "name": "_dataAssetConsumerID",
          "type": "address"
        },
        {
          "indexed": false,
          "internalType": "bytes32",
          "name": "_dataAssetID",
          "type": "bytes32"
        }
      ],
      "name": "eventDeleteDataAccess",
      "type": "event"
    },
    {
      "anonymous": false,
      "inputs": [
        {
          "indexed": true,
          "internalType": "address",
          "name": "_dataAssetProducerID",
          "type": "address"
        },
        {
          "indexed": true,
          "internalType": "address",
          "name": "_dataAssetConsumerID",
          "type": "address"
        },
        {
          "indexed": true,
          "internalType": "bytes32",
          "name": "_dataAssetID",
          "type": "bytes32"
        }
      ],
      "name": "eventGetDataAccess",
      "type": "event"
    },
    {
      "anonymous": false,
      "inputs": [
        {
          "indexed": false,
          "internalType": "address",
          "name": "_dataAssetProducerID",
          "type": "address"
        },
        {
          "indexed": false,
          "internalType": "address",
          "name": "_dataAssetConsumerID",
          "type": "address"
        },
        {
          "indexed": false,
          "internalType": "bytes32",
          "name": "_dataAssetID",
          "type": "bytes32"
        }
      ],
      "name": "eventRefuseDataAccess",
      "type": "event"
    },
    {
      "anonymous": false,
      "inputs": [
        {
          "indexed": false,
          "internalType": "address",
          "name": "_dataAssetProducerID",
          "type": "address"
        },
        {
          "indexed": false,
          "internalType": "address",
          "name": "_dataAssetConsumerID",
          "type": "address"
        },
        {
          "indexed": false,
          "internalType": "bytes32",
          "name": "_dataAssetID",
          "type": "bytes32"
        }
      ],
      "name": "eventSetDataAccess",
      "type": "event"
    },
    {
      "inputs": [],
      "name": "ODTAStorage_DIAMOND_STORAGE_POSITION",
      "outputs": [
        {
          "internalType": "bytes32",
          "name": "",
          "type": "bytes32"
        }
      ],
      "stateMutability": "view",
      "type": "function",
      "constant": true
    },
    {
      "inputs": [
        {
          "internalType": "bytes32",
          "name": "",
          "type": "bytes32"
        },
        {
          "internalType": "address",
          "name": "",
          "type": "address"
        }
      ],
      "name": "dataAssetAccessStore",
      "outputs": [
        {
          "internalType": "bool",
          "name": "dataAssetAccessStatus",
          "type": "bool"
        },
        {
          "internalType": "string",
          "name": "dataAssetAccessStartDate",
          "type": "string"
        },
        {
          "internalType": "string",
          "name": "dataAssetAccessEndDate",
          "type": "string"
        }
      ],
      "stateMutability": "view",
      "type": "function",
      "constant": true
    },
    {
      "inputs": [
        {
          "internalType": "bytes32",
          "name": "",
          "type": "bytes32"
        }
      ],
      "name": "dataAssetIDList",
      "outputs": [
        {
          "internalType": "bool",
          "name": "",
          "type": "bool"
        }
      ],
      "stateMutability": "view",
      "type": "function",
      "constant": true
    },
    {
      "inputs": [
        {
          "internalType": "bytes32",
          "name": "",
          "type": "bytes32"
        }
      ],
      "name": "dataAssetStore",
      "outputs": [
        {
          "internalType": "address",
          "name": "dataAssetProducerID",
          "type": "address"
        },
        {
          "internalType": "enum ODTAValidator.accessType",
          "name": "dataAssetAccessType",
          "type": "uint8"
        },
        {
          "internalType": "uint256",
          "name": "dataAssetAccessPrice",
          "type": "uint256"
        },
        {
          "internalType": "string",
          "name": "dataAssetAccessDuration",
          "type": "string"
        },
        {
          "internalType": "bytes32",
          "name": "proofOfIntegrigyDataAsset",
          "type": "bytes32"
        },
        {
          "internalType": "bytes32",
          "name": "proofOfSourceAuthenticity",
          "type": "bytes32"
        },
        {
          "internalType": "bytes32",
          "name": "proofOfIntegrityUseProcessingConditions",
          "type": "bytes32"
        }
      ],
      "stateMutability": "view",
      "type": "function",
      "constant": true
    },
    {
      "inputs": [],
      "name": "dataAssetTotal",
      "outputs": [
        {
          "internalType": "uint256",
          "name": "",
          "type": "uint256"
        }
      ],
      "stateMutability": "view",
      "type": "function",
      "constant": true
    },
    {
      "inputs": [
        {
          "internalType": "address",
          "name": "",
          "type": "address"
        },
        {
          "internalType": "bytes32",
          "name": "",
          "type": "bytes32"
        }
      ],
      "name": "dataProducerStore",
      "outputs": [
        {
          "internalType": "bool",
          "name": "",
          "type": "bool"
        }
      ],
      "stateMutability": "view",
      "type": "function",
      "constant": true
    },
    {
      "inputs": [
        {
          "internalType": "uint256",
          "name": "version",
          "type": "uint256"
        }
      ],
      "name": "setSCVersion",
      "outputs": [],
      "stateMutability": "nonpayable",
      "type": "function"
    },
    {
      "inputs": [],
      "name": "getSCVersion",
      "outputs": [
        {
          "internalType": "uint256",
          "name": "",
          "type": "uint256"
        }
      ],
      "stateMutability": "view",
      "type": "function",
      "constant": true
    },
    {
      "inputs": [],
      "name": "toggleContractActive",
      "outputs": [],
      "stateMutability": "nonpayable",
      "type": "function"
    },
    {
      "inputs": [],
      "name": "getStatusPauseContract",
      "outputs": [
        {
          "internalType": "bool",
          "name": "_status",
          "type": "bool"
        }
      ],
      "stateMutability": "view",
      "type": "function",
      "constant": true
    },
    {
      "inputs": [
        {
          "internalType": "bytes32",
          "name": "_dataAssetID",
          "type": "bytes32"
        },
        {
          "internalType": "address",
          "name": "_dataAssetProducerID",
          "type": "address"
        },
        {
          "internalType": "string",
          "name": "_dataAssetAccessType",
          "type": "string"
        },
        {
          "internalType": "uint256",
          "name": "_dataAssetAccessPrice",
          "type": "uint256"
        },
        {
          "internalType": "string",
          "name": "_dataAssetAccessDuration",
          "type": "string"
        },
        {
          "internalType": "bytes32",
          "name": "_proofOfIntegrigyDataAsset",
          "type": "bytes32"
        },
        {
          "internalType": "bytes32",
          "name": "_proofOfSourceAuthenticity",
          "type": "bytes32"
        },
        {
          "internalType": "bytes32",
          "name": "_proofOfIntegrityUseProcessingConditions",
          "type": "bytes32"
        }
      ],
      "name": "insertDataAsset",
      "outputs": [],
      "stateMutability": "nonpayable",
      "type": "function"
    },
    {
      "inputs": [
        {
          "internalType": "bytes32",
          "name": "_dataAssetID",
          "type": "bytes32"
        }
      ],
      "name": "getDataAsset",
      "outputs": [
        {
          "internalType": "address",
          "name": "_dataAssetProducerID",
          "type": "address"
        },
        {
          "internalType": "string",
          "name": "_dataAssetAccessType",
          "type": "string"
        },
        {
          "internalType": "uint256",
          "name": "_dataAssetAccessPrice",
          "type": "uint256"
        },
        {
          "internalType": "string",
          "name": "_dataAssetAccessDuration",
          "type": "string"
        },
        {
          "internalType": "bytes32",
          "name": "_proofOfIntegrigyDataAsset",
          "type": "bytes32"
        },
        {
          "internalType": "bytes32",
          "name": "_proofOfSourceAuthenticity",
          "type": "bytes32"
        },
        {
          "internalType": "bytes32",
          "name": "_proofOfIntegrityUseProcessingConditions",
          "type": "bytes32"
        }
      ],
      "stateMutability": "view",
      "type": "function",
      "constant": true
    },
    {
      "inputs": [
        {
          "internalType": "bytes32",
          "name": "_dataAssetID",
          "type": "bytes32"
        }
      ],
      "name": "getDataAssetAccessType",
      "outputs": [
        {
          "internalType": "string",
          "name": "_dataAssetAccessType",
          "type": "string"
        }
      ],
      "stateMutability": "view",
      "type": "function",
      "constant": true
    },
    {
      "inputs": [
        {
          "internalType": "bytes32",
          "name": "_dataAssetID",
          "type": "bytes32"
        },
        {
          "internalType": "address",
          "name": "_dataAssetConsumerID",
          "type": "address"
        },
        {
          "internalType": "bool",
          "name": "_access",
          "type": "bool"
        }
      ],
      "name": "setDataAssetAccess",
      "outputs": [],
      "stateMutability": "nonpayable",
      "type": "function"
    },
    {
      "inputs": [
        {
          "internalType": "bytes32",
          "name": "_dataAssetID",
          "type": "bytes32"
        },
        {
          "internalType": "address",
          "name": "_dataAssetConsumerID",
          "type": "address"
        }
      ],
      "name": "getDataAssetAccess",
      "outputs": [
        {
          "internalType": "bool",
          "name": "_access",
          "type": "bool"
        }
      ],
      "stateMutability": "view",
      "type": "function",
      "constant": true
    },
    {
      "inputs": [],
      "name": "getDataAssetTotal",
      "outputs": [
        {
          "internalType": "uint256",
          "name": "_dataAssetTotal",
          "type": "uint256"
        }
      ],
      "stateMutability": "view",
      "type": "function",
      "constant": true
    },
    {
      "inputs": [
        {
          "internalType": "address",
          "name": "_operatorSC",
          "type": "address"
        }
      ],
      "name": "setOperator",
      "outputs": [],
      "stateMutability": "nonpayable",
      "type": "function"
    },
    {
      "inputs": [],
      "name": "getOperator",
      "outputs": [
        {
          "internalType": "address",
          "name": "_operatorSC",
          "type": "address"
        }
      ],
      "stateMutability": "view",
      "type": "function",
      "constant": true
    }
  ],
  "bytecode": "0x608060405234801561001057600080fd5b5033600060016101000a81548173ffffffffffffffffffffffffffffffffffffffff021916908373ffffffffffffffffffffffffffffffffffffffff160217905550600060058190555060008060006101000a81548160ff02191690831515021790555060006100886100fd60201b6121dd1760201c565b905060018160000181905550600060019054906101000a900473ffffffffffffffffffffffffffffffffffffffff16600160006101000a81548173ffffffffffffffffffffffffffffffffffffffff021916908373ffffffffffffffffffffffffffffffffffffffff1602179055505061012a565b6000807f2d92e48e8c28bb87829b51224aebace634878300f0c592fa86dd273fdc07b61b90508091505090565b612365806101396000396000f3fe608060405234801561001057600080fd5b50600436106101165760003560e01c8063942001fc116100a2578063b3ab15fb11610071578063b3ab15fb146106ab578063ca3cf27e146106ef578063e4d2dd3514610894578063e7f43c68146108b4578063fc7e1e04146108e857610116565b8063942001fc146103db57806394ea75f514610527578063990f890c1461058b578063a709703d146105b957610116565b80633becbe5c116100e95780633becbe5c1461029d57806347c0f16a146102f7578063533e67111461031557806355cbd3ce14610359578063762f45b61461037757610116565b8063076c82121461011b578063092257eb146102575780631385d24c146102755780632a44f4d01461027f575b600080fd5b6101676004803603604081101561013157600080fd5b8101908080359060200190929190803573ffffffffffffffffffffffffffffffffffffffff16906020019092919050505061098f565b6040518084151581526020018060200180602001838103835285818151815260200191508051906020019080838360005b838110156101b3578082015181840152602081019050610198565b50505050905090810190601f1680156101e05780820380516001836020036101000a031916815260200191505b50838103825284818151815260200191508051906020019080838360005b838110156102195780820151818401526020810190506101fe565b50505050905090810190601f1680156102465780820380516001836020036101000a031916815260200191505b509550505050505060405180910390f35b61025f610b03565b6040518082815260200191505060405180910390f35b61027d610b0d565b005b610287610be8565b6040518082815260200191505060405180910390f35b6102f5600480360360608110156102b357600080fd5b8101908080359060200190929190803573ffffffffffffffffffffffffffffffffffffffff169060200190929190803515159060200190929190505050610c00565b005b6102ff610f2f565b6040518082815260200191505060405180910390f35b6103416004803603602081101561032b57600080fd5b8101908080359060200190929190505050610f53565b60405180821515815260200191505060405180910390f35b610361610f73565b6040518082815260200191505060405180910390f35b6103c36004803603604081101561038d57600080fd5b8101908080359060200190929190803573ffffffffffffffffffffffffffffffffffffffff169060200190929190505050610f79565b60405180821515815260200191505060405180910390f35b610407600480360360208110156103f157600080fd5b81019080803590602001909291905050506110a4565b604051808873ffffffffffffffffffffffffffffffffffffffff1681526020018060200187815260200180602001868152602001858152602001848152602001838103835289818151815260200191508051906020019080838360005b8381101561047f578082015181840152602081019050610464565b50505050905090810190601f1680156104ac5780820380516001836020036101000a031916815260200191505b50838103825287818151815260200191508051906020019080838360005b838110156104e55780820151818401526020810190506104ca565b50505050905090810190601f1680156105125780820380516001836020036101000a031916815260200191505b50995050505050505050505060405180910390f35b6105736004803603604081101561053d57600080fd5b81019080803573ffffffffffffffffffffffffffffffffffffffff16906020019092919080359060200190929190505050611742565b60405180821515815260200191505060405180910390f35b6105b7600480360360208110156105a157600080fd5b8101908080359060200190929190505050611771565b005b6105e5600480360360208110156105cf57600080fd5b810190808035906020019092919050505061183c565b604051808873ffffffffffffffffffffffffffffffffffffffff16815260200187600181111561061157fe5b815260200186815260200180602001858152602001848152602001838152602001828103825286818151815260200191508051906020019080838360005b8381101561066a57808201518184015260208101905061064f565b50505050905090810190601f1680156106975780820380516001836020036101000a031916815260200191505b509850505050505050505060405180910390f35b6106ed600480360360208110156106c157600080fd5b81019080803573ffffffffffffffffffffffffffffffffffffffff169060200190929190505050611943565b005b610892600480360361010081101561070657600080fd5b8101908080359060200190929190803573ffffffffffffffffffffffffffffffffffffffff1690602001909291908035906020019064010000000081111561074d57600080fd5b82018360208201111561075f57600080fd5b8035906020019184600183028401116401000000008311171561078157600080fd5b91908080601f016020809104026020016040519081016040528093929190818152602001838380828437600081840152601f19601f82011690508083019250505050505050919291929080359060200190929190803590602001906401000000008111156107ee57600080fd5b82018360208201111561080057600080fd5b8035906020019184600183028401116401000000008311171561082257600080fd5b91908080601f016020809104026020016040519081016040528093929190818152602001838380828437600081840152601f19601f8201169050808301925050505050505091929192908035906020019092919080359060200190929190803590602001909291905050506119f4565b005b61089c612073565b60405180821515815260200191505060405180910390f35b6108bc612089565b604051808273ffffffffffffffffffffffffffffffffffffffff16815260200191505060405180910390f35b610914600480360360208110156108fe57600080fd5b81019080803590602001909291905050506120b3565b6040518080602001828103825283818151815260200191508051906020019080838360005b83811015610954578082015181840152602081019050610939565b50505050905090810190601f1680156109815780820380516001836020036101000a031916815260200191505b509250505060405180910390f35b6006602052816000526040600020602052806000526040600020600091509150508060000160009054906101000a900460ff1690806001018054600181600116156101000203166002900480601f016020809104026020016040519081016040528092919081815260200182805460018160011615610100020316600290048015610a5b5780601f10610a3057610100808354040283529160200191610a5b565b820191906000526020600020905b815481529060010190602001808311610a3e57829003601f168201915b505050505090806002018054600181600116156101000203166002900480601f016020809104026020016040519081016040528092919081815260200182805460018160011615610100020316600290048015610af95780601f10610ace57610100808354040283529160200191610af9565b820191906000526020600020905b815481529060010190602001808311610adc57829003601f168201915b5050505050905083565b6000600554905090565b600160009054906101000a900473ffffffffffffffffffffffffffffffffffffffff1673ffffffffffffffffffffffffffffffffffffffff163373ffffffffffffffffffffffffffffffffffffffff161480610bb65750600060019054906101000a900473ffffffffffffffffffffffffffffffffffffffff1673ffffffffffffffffffffffffffffffffffffffff163373ffffffffffffffffffffffffffffffffffffffff16145b610bbf57600080fd5b60008054906101000a900460ff16156000806101000a81548160ff021916908315150217905550565b600080610bf36121dd565b9050806000015491505090565b8260011515600260003373ffffffffffffffffffffffffffffffffffffffff1673ffffffffffffffffffffffffffffffffffffffff168152602001908152602001600020600083815260200190815260200160002060009054906101000a900460ff16151514610c6f57600080fd5b60008054906101000a900460ff16610f2957816006600086815260200190815260200160002060008573ffffffffffffffffffffffffffffffffffffffff1673ffffffffffffffffffffffffffffffffffffffff16815260200190815260200160002060000160006101000a81548160ff0219169083151502179055506040518060400160405280600d81526020017f436f6d696e6746656174757265000000000000000000000000000000000000008152506006600086815260200190815260200160002060008573ffffffffffffffffffffffffffffffffffffffff1673ffffffffffffffffffffffffffffffffffffffff1681526020019081526020016000206001019080519060200190610d88929190612292565b506040518060400160405280600d81526020017f436f6d696e6746656174757265000000000000000000000000000000000000008152506006600086815260200190815260200160002060008573ffffffffffffffffffffffffffffffffffffffff1673ffffffffffffffffffffffffffffffffffffffff1681526020019081526020016000206002019080519060200190610e25929190612292565b50600115158215151415610ea7577f5509a60277495dcdc76b70c446103629557b7ad207d3e78ca3300f3fa8320ef9338486604051808473ffffffffffffffffffffffffffffffffffffffff1681526020018373ffffffffffffffffffffffffffffffffffffffff168152602001828152602001935050505060405180910390a15b600015158215151415610f28577fb8a6f2771d229dc1d10fe3fd714f1f6fb2d6ef911831f97d7e59b5e006b8b26d338486604051808473ffffffffffffffffffffffffffffffffffffffff1681526020018373ffffffffffffffffffffffffffffffffffffffff168152602001828152602001935050505060405180910390a15b5b50505050565b7f2d92e48e8c28bb87829b51224aebace634878300f0c592fa86dd273fdc07b61b81565b60036020528060005260406000206000915054906101000a900460ff1681565b60055481565b6000600115156003600085815260200190815260200160002060009054906101000a900460ff161515141561109d5760006001811115610fb557fe5b6004600085815260200190815260200160002060000160149054906101000a900460ff166001811115610fe457fe5b1415610ff3576001905061109e565b600180811115610fff57fe5b6004600085815260200190815260200160002060000160149054906101000a900460ff16600181111561102e57fe5b141561109c576006600084815260200190815260200160002060008373ffffffffffffffffffffffffffffffffffffffff1673ffffffffffffffffffffffffffffffffffffffff16815260200190815260200160002060000160009054906101000a900460ff16905061109e565b5b5b92915050565b6000606060006060600080600060011515600360008a815260200190815260200160002060009054906101000a900460ff161515141561173757600060018111156110eb57fe5b600460008a815260200190815260200160002060000160149054906101000a900460ff16600181111561111a57fe5b14156112a7576040518060400160405280600481526020017f667265650000000000000000000000000000000000000000000000000000000081525095506004600089815260200190815260200160002060000160009054906101000a900473ffffffffffffffffffffffffffffffffffffffff16965060046000898152602001908152602001600020600101549450600460008981526020019081526020016000206002018054600181600116156101000203166002900480601f0160208091040260200160405190810160405280929190818152602001828054600181600116156101000203166002900480156112545780601f1061122957610100808354040283529160200191611254565b820191906000526020600020905b81548152906001019060200180831161123757829003601f168201915b505050505093506004600089815260200190815260200160002060030154925060046000898152602001908152602001600020600401549150600460008981526020019081526020016000206005015490505b6001808111156112b357fe5b600460008a815260200190815260200160002060000160149054906101000a900460ff1660018111156112e257fe5b148015611353575060011515600660008a815260200190815260200160002060003373ffffffffffffffffffffffffffffffffffffffff1673ffffffffffffffffffffffffffffffffffffffff16815260200190815260200160002060000160009054906101000a900460ff161515145b156114df576040518060400160405280600681526020017f706179696e67000000000000000000000000000000000000000000000000000081525095506004600089815260200190815260200160002060000160009054906101000a900473ffffffffffffffffffffffffffffffffffffffff16965060046000898152602001908152602001600020600101549450600460008981526020019081526020016000206002018054600181600116156101000203166002900480601f01602080910402602001604051908101604052809291908181526020018280546001816001161561010002031660029004801561148c5780601f106114615761010080835404028352916020019161148c565b820191906000526020600020905b81548152906001019060200180831161146f57829003601f168201915b505050505093506004600089815260200190815260200160002060030154925060046000898152602001908152602001600020600401549150600460008981526020019081526020016000206005015490505b6001808111156114eb57fe5b600460008a815260200190815260200160002060000160149054906101000a900460ff16600181111561151a57fe5b14801561158c575060011515600660008a815260200190815260200160002060003373ffffffffffffffffffffffffffffffffffffffff1673ffffffffffffffffffffffffffffffffffffffff16815260200190815260200160002060000160009054906101000a900460ff16151514155b15611736576040518060400160405280600681526020017f706179696e67000000000000000000000000000000000000000000000000000081525095506004600089815260200190815260200160002060000160009054906101000a900473ffffffffffffffffffffffffffffffffffffffff16965060046000898152602001908152602001600020600101549450600460008981526020019081526020016000206002018054600181600116156101000203166002900480601f0160208091040260200160405190810160405280929190818152602001828054600181600116156101000203166002900480156116c55780601f1061169a576101008083540402835291602001916116c5565b820191906000526020600020905b8154815290600101906020018083116116a857829003601f168201915b505050505093507f726566757365640000000000000000000000000000000000000000000000000092507f726566757365640000000000000000000000000000000000000000000000000091507f726566757365640000000000000000000000000000000000000000000000000090505b5b919395979092949650565b60026020528160005260406000206020528060005260406000206000915091509054906101000a900460ff1681565b600160009054906101000a900473ffffffffffffffffffffffffffffffffffffffff1673ffffffffffffffffffffffffffffffffffffffff163373ffffffffffffffffffffffffffffffffffffffff16148061181a5750600060019054906101000a900473ffffffffffffffffffffffffffffffffffffffff1673ffffffffffffffffffffffffffffffffffffffff163373ffffffffffffffffffffffffffffffffffffffff16145b61182357600080fd5b600061182d6121dd565b90508181600001819055505050565b60046020528060005260406000206000915090508060000160009054906101000a900473ffffffffffffffffffffffffffffffffffffffff16908060000160149054906101000a900460ff1690806001015490806002018054600181600116156101000203166002900480601f0160208091040260200160405190810160405280929190818152602001828054600181600116156101000203166002900480156119275780601f106118fc57610100808354040283529160200191611927565b820191906000526020600020905b81548152906001019060200180831161190a57829003601f168201915b5050505050908060030154908060040154908060050154905087565b600060019054906101000a900473ffffffffffffffffffffffffffffffffffffffff1673ffffffffffffffffffffffffffffffffffffffff163373ffffffffffffffffffffffffffffffffffffffff161461199d57600080fd5b60008054906101000a900460ff166119f15780600160006101000a81548173ffffffffffffffffffffffffffffffffffffffff021916908373ffffffffffffffffffffffffffffffffffffffff1602179055505b50565b8633604051602001808273ffffffffffffffffffffffffffffffffffffffff1660601b81526014019150506040516020818303038152906040528051906020012081604051602001808273ffffffffffffffffffffffffffffffffffffffff1660601b81526014019150506040516020818303038152906040528051906020012014611a7f57600080fd5b60008054906101000a900460ff166120685760011515600260008a73ffffffffffffffffffffffffffffffffffffffff1673ffffffffffffffffffffffffffffffffffffffff16815260200190815260200160002060008b815260200190815260200160002060009054906101000a900460ff16151514158015611b2e57503373ffffffffffffffffffffffffffffffffffffffff168873ffffffffffffffffffffffffffffffffffffffff16145b15612067576001600360008b815260200190815260200160002060006101000a81548160ff0219169083151502179055506001600260008a73ffffffffffffffffffffffffffffffffffffffff1673ffffffffffffffffffffffffffffffffffffffff16815260200190815260200160002060008b815260200190815260200160002060006101000a81548160ff02191690831515021790555087600460008b815260200190815260200160002060000160006101000a81548173ffffffffffffffffffffffffffffffffffffffff021916908373ffffffffffffffffffffffffffffffffffffffff16021790555060405160200180807f6672656500000000000000000000000000000000000000000000000000000000815250600401905060405160208183030381529060405280519060200120876040516020018082805190602001908083835b60208310611c9b5780518252602082019150602081019050602083039250611c78565b6001836020036101000a038019825116818451168082178552505050505050905001915050604051602081830303815290604052805190602001201415611d15576000600460008b815260200190815260200160002060000160146101000a81548160ff02191690836001811115611d0f57fe5b02179055505b60405160200180807f706179696e670000000000000000000000000000000000000000000000000000815250600601905060405160208183030381529060405280519060200120876040516020018082805190602001908083835b60208310611d935780518252602082019150602081019050602083039250611d70565b6001836020036101000a038019825116818451168082178552505050505050905001915050604051602081830303815290604052805190602001201415611fb3576001600460008b815260200190815260200160002060000160146101000a81548160ff02191690836001811115611e0757fe5b02179055506001600660008b815260200190815260200160002060008a73ffffffffffffffffffffffffffffffffffffffff1673ffffffffffffffffffffffffffffffffffffffff16815260200190815260200160002060000160006101000a81548160ff0219169083151502179055506040518060400160405280600d81526020017f436f6d696e674665617475726500000000000000000000000000000000000000815250600660008b815260200190815260200160002060008a73ffffffffffffffffffffffffffffffffffffffff1673ffffffffffffffffffffffffffffffffffffffff1681526020019081526020016000206001019080519060200190611f14929190612292565b506040518060400160405280600d81526020017f436f6d696e674665617475726500000000000000000000000000000000000000815250600660008b815260200190815260200160002060008a73ffffffffffffffffffffffffffffffffffffffff1673ffffffffffffffffffffffffffffffffffffffff1681526020019081526020016000206002019080519060200190611fb1929190612292565b505b85600460008b81526020019081526020016000206001018190555084600460008b81526020019081526020016000206002019080519060200190611ff8929190612292565b5083600460008b81526020019081526020016000206003018190555082600460008b81526020019081526020016000206004018190555081600460008b815260200190815260200160002060050181905550612060600160055461220a90919063ffffffff16565b6005819055505b5b505050505050505050565b60008060009054906101000a900460ff16905090565b6000600160009054906101000a900473ffffffffffffffffffffffffffffffffffffffff16905090565b6060600115156003600084815260200190815260200160002060009054906101000a900460ff16151514156121d857600060018111156120ef57fe5b6004600084815260200190815260200160002060000160149054906101000a900460ff16600181111561211e57fe5b141561215d576040518060400160405280600481526020017f667265650000000000000000000000000000000000000000000000000000000081525090505b60018081111561216957fe5b6004600084815260200190815260200160002060000160149054906101000a900460ff16600181111561219857fe5b14156121d7576040518060400160405280600681526020017f706179696e67000000000000000000000000000000000000000000000000000081525090505b5b919050565b6000807f2d92e48e8c28bb87829b51224aebace634878300f0c592fa86dd273fdc07b61b90508091505090565b600080828401905083811015612288576040517f08c379a00000000000000000000000000000000000000000000000000000000081526004018080602001828103825260118152602001807f4164646974696f6e206f766572666c6f7700000000000000000000000000000081525060200191505060405180910390fd5b8091505092915050565b828054600181600116156101000203166002900490600052602060002090601f016020900481019282601f106122d357805160ff1916838001178555612301565b82800160010185558215612301579182015b828111156123005782518255916020019190600101906122e5565b5b50905061230e9190612312565b5090565b5b8082111561232b576000816000905550600101612313565b509056fea2646970667358221220c8e3e863eb8e0804955a63746c015da495a676b7eaf8c5a93475970ffdd7611a64736f6c63430007000033",
  "immutableReferences": {},
  "source": "// SPDX-License-Identifier: EUPL V1.2\n//pragma solidity <=0.8.0;\n//pragma solidity ^0.5.16;\npragma solidity ^0.7.0;\n\n// Import a lib managing overflow on add/sub\nimport \"./utils/SafeMath.sol\";\nimport \"./ODTAStorage.sol\";\n\n/** @title ODTAValidator SC is in charge of managing DataAsset Trust Anchors\n    @author Marc-Antoine Lemaire from Company IP Convergence\n    @notice version 0.1, on 1 november 2020\n */\ncontract ODTAValidator is ODTAStorage { \n    using SafeMath for uint256;\n// ------------ Define the States Variables of the SC ----------------\n// -- Objects used by SmartContract Administrator --\n    bool private stopped;\n    address internal owner;\n    address internal operatorSC; // We recommand to set the operator to a multisig wallet address, group of operators\n// -- Objects used by Data Producer --\n\n    /// dataProducerStore = mapping of dataProducerID Address to mapping of Hash Data Asset produced by him set to true to indicate produced\n    mapping (address => mapping(bytes32 => bool)) public dataProducerStore;\n    /// dataProdudcerDataAssetList = An array of dataAssetID produced by a dataProducerID\n    /// !!! To Be Potentially suppress   bytes32[] public dataProducerDataAssetList;\n\n// -- Objects used for managing Data Asset --\n    /// dataAssetIDList = mapping of all the dataAssetID managed by the SC. It has value true if present\n    /// !!! to check if needed because overlap with dataProducerStore[dataAssetProducerID][dataAsset]\n    mapping (bytes32 => bool) public dataAssetIDList;\n    /// accessType : enum saying if the access is free or you must pay\n    enum accessType {free, paying}\n    /// dataAssetObject = structure that containes all required Data Asset Information to manage Trust and access control from SC\n    struct dataAssetObject{\n        address dataAssetProducerID;\n        accessType dataAssetAccessType; // Same access type for all, but we could in the future move that parameter to the dataAssetAccessObject\n        uint256 dataAssetAccessPrice; // in wei (1 Ether = 1e18)\n        string dataAssetAccessDuration; // in Number of days\n        bytes32 proofOfIntegrigyDataAsset;\n        bytes32 proofOfSourceAuthenticity;\n        bytes32 proofOfIntegrityUseProcessingConditions;\n    }\n    /// dataAssetStore = mapping of all the dataAssetID (Hash of DataAsset) and their linked dataAssetObject \n    mapping (bytes32 => dataAssetObject) public dataAssetStore;\n    /// dataAssetTotal = Total number of Asset Anchored on the ODTA Registry\n    uint256 public dataAssetTotal;\n\n// -- Objects used for managing Access to the Data Asset (only records for dataAssetAccessType = paying) --\n    /// dataAssetAccessObject = structure that contains the access parameter for a Data Asset, only if paying resource\n    struct dataAssetAccessObject{\n        bool dataAssetAccessStatus;\n        string dataAssetAccessStartDate;\n        string dataAssetAccessEndDate;\n    }\n    /// dataAssetAccessStore = mapping of all the dataAssetID to the mapping of their dataConsumerID address to their dataAssetAccessObject\n    /// ! if the dataAssetAccessType = Free, we don't created any entry on DataAssetAccessStore for the Data Asset\n    mapping (bytes32 => mapping(address => dataAssetAccessObject)) public dataAssetAccessStore;\n\n// -- Events needed to manage notification on operation on DataAsset --\n    /// eventSetDataAccess = event to be generated every time a DataAssetProducerID give Access to a Data Asset to a Data Consumer\n    event eventSetDataAccess(address _dataAssetProducerID, address _dataAssetConsumerID, bytes32 _dataAssetID);\n     /// eventDeleteDataAccess = event to be generated every time a DataAssetProducerID removes the Access to a Data Asset to a Data Consumer\n    event eventDeleteDataAccess(address _dataAssetProducerID, address _dataAssetConsumerID, bytes32 _dataAssetID);\n    /// eventGetDataAccess = event to be generated every time a DataAssetConsumerID getAccess to a Data Asset\n    event eventGetDataAccess(address indexed _dataAssetProducerID, address indexed _dataAssetConsumerID, bytes32 indexed _dataAssetID);\n    /// eventRefuseDataAccess = event to be generated every time a DataAssetConsumerID has not yet access to a Data Asset because he has not yet paid the fee\n    event eventRefuseDataAccess(address _dataAssetProducerID, address _dataAssetConsumerID, bytes32 _dataAssetID);\n    /// eventDataAccessPaidSuccessfull = event to be generated every time a a Data Consumer paid successfully for the access to a paying Data Asset\n    event eventDataAccessPaidSuccessfull(address _dataAssetProducerID, address _dataAssetConsumerID, bytes32 _dataAssetID, uint256 value);\n    /// eventDataAccessPaidFailure = event to be generated every time a a Data Consumer payment failed for the access to a paying Data Asset\n    event eventDataAccessPaidFailure(address _dataAssetProducerID, address _dataAssetConsumerID, bytes32 _dataAssetID, uint256 value);\n\n// -- Modifier needed to perfom different control on some SC Data Asset --\n    /// isOwner modifer: checks if the msg.sender is the owner of the contract\n    modifier isOwner() {\n        require(msg.sender == owner);\n        _;\n    }\n    /// isOperator modifer: checks if the msg.sender is the Operator of the contract. It can be only the owner or the operator\n    modifier isOperator() {\n        require(msg.sender == operatorSC || msg.sender == owner);\n        _;\n    }\n    /// stopInEmergency: when there is a bug and the SC is put in pause by Owner, the stopped = true, meaning that the condition here under is not valid\n    /// and the function having that modifier can not execute anymore\n    modifier stopInEmergency() { if (!stopped) _; }\n    /// isProducerOfExistingDataAsset: check if the msg.send is well the DataProducer of an existing DataAsset well present in dataProducerStore\n    modifier isProducerOfExistingDataAsset(bytes32 _dataAssetID){\n        require(dataProducerStore[msg.sender][_dataAssetID] == true);\n        _;\n    }\n    /// isDataProducer: check if the msg.send is the same as Data Asset requested producer\n    modifier isDataProducer(address _dataAssetProducerID){\n        require(keccak256(abi.encodePacked(_dataAssetProducerID)) == keccak256(abi.encodePacked(msg.sender)));\n        _;\n    }\n    /// isDataAssetExistInDataAssetIDList: check if a Data Asset is well presend in the DataAssetIDList\n    modifier isDataAssetExistInDataAssetIDList(bytes32 _dataAssetID){\n        require(dataAssetIDList[_dataAssetID]== true);\n        _;\n    }\n\n// ------------ Define functions of the SC ----------------\n\n    /** @dev Constructor of the ODTAValidator SmartContract\n    */\n    constructor() public{\n        /* set the owner as the person who instantiated the contract. */\n        owner = msg.sender;\n        dataAssetTotal = 0;\n        stopped = false; // Used by Circuit Breakers, pause functionality. When true it is in pause\n        ODTA storage ds = ODTAStorage.odtaStorage();\n        ds._version = 1;\n        operatorSC = owner;\n    }\n    /** @dev Function to set the SC version on a Diamond Storage\n        @param version version number of the SC\n    */\n    function setSCVersion(uint256 version) isOperator() public {\n        ODTA storage ds = ODTAStorage.odtaStorage();\n        ds._version = version;\n    }\n     /** @dev Function to return the SC version stored on Diamond Storage\n         @return unit256 version of the SC\n    */\n    function getSCVersion() public view returns (uint256) {\n        ODTA storage ds = odtaStorage();\n        return ds._version;\n    }\n\n    /** @dev Function in charge or puting in pause the SC, only operator can do it (in includes the owner also)\n     */\n    function toggleContractActive() isOperator() public {\n        stopped = !stopped;\n    }\n    /** @dev Function in charge of getting the status of the pause status of the SC\n        @return _status Return the status. If the SC is in pause, it returns true\n     */\n    \n    function getStatusPauseContract() public view returns (bool _status) {\n        return stopped;\n    }\n\n    /** @dev Function in charge of inserting a Data Asset on SC\n        @param _dataAssetID Hash of the Data Asset \n        @param _dataAssetProducerID Address of the dataAsset\n        @param _dataAssetAccessType Type of access {free, paying}\n        @param _dataAssetAccessPrice Price in Ether set by the Data Producer to access the Data Asset, if paying one\n        @param _dataAssetAccessDuration Duration of the access in number of days\n        @param _proofOfIntegrigyDataAsset Hash of the DataAssetValue\n        @param _proofOfSourceAuthenticity Address of the dataAssetProducerID, Etherum address\n        @param _proofOfIntegrityUseProcessingConditions Hash of Use and Processing Conditions of the data Asset\n     */\n     function insertDataAsset (\n                                bytes32 _dataAssetID,\n                                address _dataAssetProducerID,\n                                string memory _dataAssetAccessType,\n                                uint256 _dataAssetAccessPrice,\n                                string memory _dataAssetAccessDuration,\n                                bytes32 _proofOfIntegrigyDataAsset,\n                                bytes32 _proofOfSourceAuthenticity,\n                                bytes32 _proofOfIntegrityUseProcessingConditions) public isDataProducer(_dataAssetProducerID) stopInEmergency(){\n        if(dataProducerStore[_dataAssetProducerID][_dataAssetID] != true && _dataAssetProducerID == msg.sender){\n            dataAssetIDList[_dataAssetID]=true;\n            /// !!! could be overlap with dataAssetIDList (see what I choose)\n            dataProducerStore[_dataAssetProducerID][_dataAssetID]=true;\n            dataAssetStore[_dataAssetID].dataAssetProducerID=_dataAssetProducerID;\n            if(keccak256(abi.encodePacked(_dataAssetAccessType)) == keccak256(abi.encodePacked(\"free\"))){\n                dataAssetStore[_dataAssetID].dataAssetAccessType=accessType.free;\n            }\n            if(keccak256(abi.encodePacked(_dataAssetAccessType)) == keccak256(abi.encodePacked(\"paying\"))){\n                dataAssetStore[_dataAssetID].dataAssetAccessType=accessType.paying;\n                dataAssetAccessStore[_dataAssetID][_dataAssetProducerID].dataAssetAccessStatus=true;\n                dataAssetAccessStore[_dataAssetID][_dataAssetProducerID].dataAssetAccessStartDate=\"ComingFeature\";\n                dataAssetAccessStore[_dataAssetID][_dataAssetProducerID].dataAssetAccessEndDate=\"ComingFeature\";\n                \n            }\n            dataAssetStore[_dataAssetID].dataAssetAccessPrice=_dataAssetAccessPrice;\n            dataAssetStore[_dataAssetID].dataAssetAccessDuration=_dataAssetAccessDuration;\n            dataAssetStore[_dataAssetID].proofOfIntegrigyDataAsset=_proofOfIntegrigyDataAsset;\n            dataAssetStore[_dataAssetID].proofOfSourceAuthenticity=_proofOfSourceAuthenticity;\n            dataAssetStore[_dataAssetID].proofOfIntegrityUseProcessingConditions=_proofOfIntegrityUseProcessingConditions;\n            dataAssetTotal=dataAssetTotal.add(1);\n        } /// !!! Add later on a try catch to give message is already in SC data\n    }\n\n    /** @dev Function in charge of inserting a Data Asset on SC\n        @param _dataAssetID Hash of the dataAssetValue\n        @return _dataAssetProducerID Address of the Data Producer\n        @return _dataAssetAccessType :Type of access {free, paying}\n        @return _dataAssetAccessPrice :Price in Ether set by the Data Producer to access the Data Asset, if paying one\n        @return _dataAssetAccessDuration :Duration of the access in number of days\n        @return _proofOfIntegrigyDataAsset :Hash of the DataAssetValue\n        @return _proofOfSourceAuthenticity :Address of the dataAssetProducerID, Etherum address\n        @return _proofOfIntegrityUseProcessingConditions :Hash of Use and Processing Conditions of the data Asset\n     */\n    function getDataAsset(bytes32 _dataAssetID) public view returns (address _dataAssetProducerID,\n                                                                string memory _dataAssetAccessType,\n                                                                uint256 _dataAssetAccessPrice,\n                                                                string memory _dataAssetAccessDuration,\n                                                                bytes32 _proofOfIntegrigyDataAsset,\n                                                                bytes32 _proofOfSourceAuthenticity,\n                                                                bytes32 _proofOfIntegrityUseProcessingConditions) {\n      if(dataAssetIDList[_dataAssetID]==true){\n            if(dataAssetStore[_dataAssetID].dataAssetAccessType == accessType.free){\n                _dataAssetAccessType=\"free\"; //\n                _dataAssetProducerID=dataAssetStore[_dataAssetID].dataAssetProducerID;\n                _dataAssetAccessPrice=dataAssetStore[_dataAssetID].dataAssetAccessPrice;\n                _dataAssetAccessDuration=dataAssetStore[_dataAssetID].dataAssetAccessDuration;\n                _proofOfIntegrigyDataAsset=dataAssetStore[_dataAssetID].proofOfIntegrigyDataAsset;\n                _proofOfSourceAuthenticity=dataAssetStore[_dataAssetID].proofOfSourceAuthenticity;\n                _proofOfIntegrityUseProcessingConditions=dataAssetStore[_dataAssetID].proofOfIntegrityUseProcessingConditions;\n                //emit eventGetDataAccess(_dataAssetProducerID,msg.sender,_dataAssetID);\n            }\n            if(dataAssetStore[_dataAssetID].dataAssetAccessType == accessType.paying && dataAssetAccessStore[_dataAssetID][msg.sender].dataAssetAccessStatus==true){\n                _dataAssetAccessType=\"paying\";\n                _dataAssetProducerID=dataAssetStore[_dataAssetID].dataAssetProducerID;\n                _dataAssetAccessPrice=dataAssetStore[_dataAssetID].dataAssetAccessPrice;\n                _dataAssetAccessDuration=dataAssetStore[_dataAssetID].dataAssetAccessDuration;\n                _proofOfIntegrigyDataAsset=dataAssetStore[_dataAssetID].proofOfIntegrigyDataAsset;\n                _proofOfSourceAuthenticity=dataAssetStore[_dataAssetID].proofOfSourceAuthenticity;\n                _proofOfIntegrityUseProcessingConditions=dataAssetStore[_dataAssetID].proofOfIntegrityUseProcessingConditions;\n                //emit eventGetDataAccess(_dataAssetProducerID,msg.sender,_dataAssetID);\n            }\n            if(dataAssetStore[_dataAssetID].dataAssetAccessType == accessType.paying && dataAssetAccessStore[_dataAssetID][msg.sender].dataAssetAccessStatus!=true){\n                _dataAssetAccessType=\"paying\";\n                _dataAssetProducerID=dataAssetStore[_dataAssetID].dataAssetProducerID;\n                _dataAssetAccessPrice=dataAssetStore[_dataAssetID].dataAssetAccessPrice;\n                _dataAssetAccessDuration=dataAssetStore[_dataAssetID].dataAssetAccessDuration;\n                _proofOfIntegrigyDataAsset=\"refused\";\n                _proofOfSourceAuthenticity=\"refused\";\n                _proofOfIntegrityUseProcessingConditions=\"refused\";\n                //emit eventRefuseDataAccess(_dataAssetProducerID,msg.sender,_dataAssetID);\n            }                                                           \n        }\n    }\n    /** @dev Function in charge of geting the access type for a dataAssetID, so knowing if {free, paying}\n        @param _dataAssetID Hash of the dataAssetValue a DataConsumer is trying to Access\n        @return _dataAssetAccessType the type of access {free, paying} to access the Data Asset\n    */\n    function getDataAssetAccessType(bytes32 _dataAssetID) public view returns (string memory _dataAssetAccessType){\n        if(dataAssetIDList[_dataAssetID]==true){\n            if(dataAssetStore[_dataAssetID].dataAssetAccessType == accessType.free){\n                _dataAssetAccessType=\"free\";\n            }\n            if(dataAssetStore[_dataAssetID].dataAssetAccessType == accessType.paying){\n               _dataAssetAccessType=\"paying\";\n            }\n        } /// Add trow error is dataAssetID is not in dataAssetStore\n    }\n    /** @dev Function to give access to a Data Asset Consumer to a Data Asset. This function is called by the Data Asset Producer\n        @param _dataAssetID Hash of the dataAssetValue for which the Data Producer wants to give an authorization\n        @param _dataAssetConsumerID Address of the Dat Asset Consumer that could have the access (if free no access needed to be setup)\n    */\n    /// !!! Not sure I need this because it is automatically authorized inside the function payToAccessDataAsset\n    function setDataAssetAccess(bytes32 _dataAssetID, address _dataAssetConsumerID,bool _access) public isProducerOfExistingDataAsset(_dataAssetID) stopInEmergency(){\n        dataAssetAccessStore[_dataAssetID][_dataAssetConsumerID].dataAssetAccessStatus=_access;\n        dataAssetAccessStore[_dataAssetID][_dataAssetConsumerID].dataAssetAccessStartDate=\"ComingFeature\";\n        dataAssetAccessStore[_dataAssetID][_dataAssetConsumerID].dataAssetAccessEndDate=\"ComingFeature\";\n        /// event emitted to notify the _dataAssetConsumerID he has well received access to the Data Asset, following his succefull money transaction\n        if(_access == true){\n            emit eventSetDataAccess(msg.sender, _dataAssetConsumerID, _dataAssetID);\n        }\n        if(_access==false){\n            emit eventDeleteDataAccess(msg.sender, _dataAssetConsumerID, _dataAssetID);\n        }\n        \n    }\n    /** @dev Function in charge of geting the access type for a dataAssetID, so knowing if {free, paying}\n        @param _dataAssetID Hash of the dataAssetValue a DataConsumer is trying to Access\n        @param _dataAssetConsumerID Address of the consumer we want to know if he has received the access from the Data Producer\n        @return _access Boolean indicating if the dataAssetConsumerID has access to the _dataAssetID\n    */\n    function getDataAssetAccess(bytes32 _dataAssetID, address _dataAssetConsumerID) public view returns (bool _access){\n        if(dataAssetIDList[_dataAssetID]==true){\n           if(dataAssetStore[_dataAssetID].dataAssetAccessType == accessType.free){\n                return true;\n            }\n            if(dataAssetStore[_dataAssetID].dataAssetAccessType == accessType.paying){\n                return dataAssetAccessStore[_dataAssetID][_dataAssetConsumerID].dataAssetAccessStatus;\n            } \n           \n        } /// Add trow error is dataAssetID is not in dataAssetStore\n    }\n    \n    /** @dev Function in charge of getting the number of Data Asset currently manage by the ODTA Registry\n        @return _dataAssetTotal uint256 indicating the total number of Data Asset anchored on the ODTA Registy\n    */\n    function getDataAssetTotal() public view returns (uint256 _dataAssetTotal){\n        return dataAssetTotal;\n    }\n    \n    /** @dev Function to set the address of the Operator of the SC, only the owner can change it. We recommand to put the address of a multisig wallet\n        @param _operatorSC address of SC operator to be setup\n    */\n    function setOperator(address _operatorSC) public isOwner() stopInEmergency(){\n        operatorSC=_operatorSC;\n    }\n    /** @dev Function to get the address of the Operator of the SC, only the owner can change it. We recommand to put the address of a multisig wallet\n        @return _operatorSC address of SC operator configured on the SC\n    */\n    function getOperator() public view returns (address _operatorSC){\n        return operatorSC;\n    }\n    \n    // @dev Function to be called by the Data Consumer, to pay for accessing the Data Asset if the Data Producer has specify paying access conditions\n    //    @param _dataAssetID Hash of the dataAssetValue for which a user is going to pay for accessing it\n    //    @param _toDestination Address of the Data Producer of the Asset that should receive the money paid by the consumer\n    /// ! Not Implemented for the Project Course\n    //function payToAccessDataAsset(bytes32 _dataAssetID, address payable _toDestination) public payable isDataAssetExistInDataAssetIDList(_dataAssetID){\n    //    if(dataAssetAccessStore[_dataAssetID][msg.sender].dataAssetAccessStatus!=true && dataAssetStore[_dataAssetID].dataAssetProducerID ==_toDestination){\n    //        require(msg.value >= dataAssetStore[_dataAssetID].dataAssetAccessPrice, \"Insufficient funds\"); // !!! msg.value is in WEI Unit (1 Ether = 1e18 wei)\n            /// Autorization is set to the msg.sender for the Data Asset\n    //        dataAssetAccessStore[_dataAssetID][msg.sender].dataAssetAccessStatus=true; // Prevent Reentrancy Issue\n    //        dataAssetAccessStore[_dataAssetID][msg.sender].dataAssetAccessStartDate=\"ComingFeature\";\n    //        dataAssetAccessStore[_dataAssetID][msg.sender].dataAssetAccessEndDate=\"ComingFeature\";\n    //        emit eventSetDataAccess(_toDestination, msg.sender, _dataAssetID);\n    //        emit eventDataAccessPaidSuccessfull(dataAssetStore[_dataAssetID].dataAssetProducerID, msg.sender, _dataAssetID, dataAssetStore[_dataAssetID].dataAssetAccessPrice);\n    //        _toDestination.transfer(msg.value); // Prevent Reentrancy Issue, by puting the call to extenal function at the end\n    //    } /// !!! To be optimized later on v2.0 because not secure optimal for money transert\n    //}\n    \n\n}\n\n\n\n\n",
  "sourcePath": "/Users/lemaima/Documents/devTest/TrustedDistributedOpenDataRegistry/contracts/ODTAValidator.sol",
  "compiler": {
    "name": "solc",
    "version": "0.7.0+commit.9e61f92b.Emscripten.clang"
  },
  "schemaVersion": "3.3.2",
  "updatedAt": "2020-11-22T14:21:35.566Z",
  "networkType": "ethereum",
  "devdoc": {
    "author": "Marc-Antoine Lemaire from Company IP Convergence",
    "kind": "dev",
    "methods": {
      "constructor": {
        "details": "Constructor of the ODTAValidator SmartContract"
      },
      "getDataAsset(bytes32)": {
        "details": "Function in charge of inserting a Data Asset on SC",
        "params": {
          "_dataAssetID": "Hash of the dataAssetValue"
        },
        "returns": {
          "_dataAssetAccessDuration": ":Duration of the access in number of days",
          "_dataAssetAccessPrice": ":Price in Ether set by the Data Producer to access the Data Asset, if paying one",
          "_dataAssetAccessType": ":Type of access {free, paying}",
          "_dataAssetProducerID": "Address of the Data Producer",
          "_proofOfIntegrigyDataAsset": ":Hash of the DataAssetValue",
          "_proofOfIntegrityUseProcessingConditions": ":Hash of Use and Processing Conditions of the data Asset",
          "_proofOfSourceAuthenticity": ":Address of the dataAssetProducerID, Etherum address"
        }
      },
      "getDataAssetAccess(bytes32,address)": {
        "details": "Function in charge of geting the access type for a dataAssetID, so knowing if {free, paying}",
        "params": {
          "_dataAssetConsumerID": "Address of the consumer we want to know if he has received the access from the Data Producer",
          "_dataAssetID": "Hash of the dataAssetValue a DataConsumer is trying to Access"
        },
        "returns": {
          "_access": "Boolean indicating if the dataAssetConsumerID has access to the _dataAssetID"
        }
      },
      "getDataAssetAccessType(bytes32)": {
        "details": "Function in charge of geting the access type for a dataAssetID, so knowing if {free, paying}",
        "params": {
          "_dataAssetID": "Hash of the dataAssetValue a DataConsumer is trying to Access"
        },
        "returns": {
          "_dataAssetAccessType": "the type of access {free, paying} to access the Data Asset"
        }
      },
      "getDataAssetTotal()": {
        "details": "Function in charge of getting the number of Data Asset currently manage by the ODTA Registry",
        "returns": {
          "_dataAssetTotal": "uint256 indicating the total number of Data Asset anchored on the ODTA Registy"
        }
      },
      "getOperator()": {
        "details": "Function to get the address of the Operator of the SC, only the owner can change it. We recommand to put the address of a multisig wallet",
        "returns": {
          "_operatorSC": "address of SC operator configured on the SC"
        }
      },
      "getSCVersion()": {
        "details": "Function to return the SC version stored on Diamond Storage",
        "returns": {
          "_0": "unit256 version of the SC"
        }
      },
      "getStatusPauseContract()": {
        "details": "Function in charge of getting the status of the pause status of the SC",
        "returns": {
          "_status": "Return the status. If the SC is in pause, it returns true"
        }
      },
      "insertDataAsset(bytes32,address,string,uint256,string,bytes32,bytes32,bytes32)": {
        "details": "Function in charge of inserting a Data Asset on SC",
        "params": {
          "_dataAssetAccessDuration": "Duration of the access in number of days",
          "_dataAssetAccessPrice": "Price in Ether set by the Data Producer to access the Data Asset, if paying one",
          "_dataAssetAccessType": "Type of access {free, paying}",
          "_dataAssetID": "Hash of the Data Asset ",
          "_dataAssetProducerID": "Address of the dataAsset",
          "_proofOfIntegrigyDataAsset": "Hash of the DataAssetValue",
          "_proofOfIntegrityUseProcessingConditions": "Hash of Use and Processing Conditions of the data Asset",
          "_proofOfSourceAuthenticity": "Address of the dataAssetProducerID, Etherum address"
        }
      },
      "setOperator(address)": {
        "details": "Function to set the address of the Operator of the SC, only the owner can change it. We recommand to put the address of a multisig wallet",
        "params": {
          "_operatorSC": "address of SC operator to be setup"
        }
      },
      "setSCVersion(uint256)": {
        "details": "Function to set the SC version on a Diamond Storage",
        "params": {
          "version": "version number of the SC"
        }
      },
      "toggleContractActive()": {
        "details": "Function in charge or puting in pause the SC, only operator can do it (in includes the owner also)"
      }
    },
    "title": "ODTAValidator SC is in charge of managing DataAsset Trust Anchors",
    "version": 1
  },
  "userdoc": {
    "events": {
      "eventDataAccessPaidFailure(address,address,bytes32,uint256)": {
        "notice": "eventDataAccessPaidFailure = event to be generated every time a a Data Consumer payment failed for the access to a paying Data Asset"
      },
      "eventDataAccessPaidSuccessfull(address,address,bytes32,uint256)": {
        "notice": "eventDataAccessPaidSuccessfull = event to be generated every time a a Data Consumer paid successfully for the access to a paying Data Asset"
      },
      "eventDeleteDataAccess(address,address,bytes32)": {
        "notice": "eventDeleteDataAccess = event to be generated every time a DataAssetProducerID removes the Access to a Data Asset to a Data Consumer"
      },
      "eventGetDataAccess(address,address,bytes32)": {
        "notice": "eventGetDataAccess = event to be generated every time a DataAssetConsumerID getAccess to a Data Asset"
      },
      "eventRefuseDataAccess(address,address,bytes32)": {
        "notice": "eventRefuseDataAccess = event to be generated every time a DataAssetConsumerID has not yet access to a Data Asset because he has not yet paid the fee"
      },
      "eventSetDataAccess(address,address,bytes32)": {
        "notice": "eventSetDataAccess = event to be generated every time a DataAssetProducerID give Access to a Data Asset to a Data Consumer"
      }
    },
    "kind": "user",
    "methods": {
      "dataAssetAccessStore(bytes32,address)": {
        "notice": "dataAssetAccessStore = mapping of all the dataAssetID to the mapping of their dataConsumerID address to their dataAssetAccessObject ! if the dataAssetAccessType = Free, we don't created any entry on DataAssetAccessStore for the Data Asset"
      },
      "dataAssetIDList(bytes32)": {
        "notice": "dataAssetIDList = mapping of all the dataAssetID managed by the SC. It has value true if present !!! to check if needed because overlap with dataProducerStore[dataAssetProducerID][dataAsset]"
      },
      "dataAssetStore(bytes32)": {
        "notice": "dataAssetStore = mapping of all the dataAssetID (Hash of DataAsset) and their linked dataAssetObject "
      },
      "dataAssetTotal()": {
        "notice": "dataAssetTotal = Total number of Asset Anchored on the ODTA Registry"
      },
      "dataProducerStore(address,bytes32)": {
        "notice": "dataProducerStore = mapping of dataProducerID Address to mapping of Hash Data Asset produced by him set to true to indicate produced"
      },
      "setDataAssetAccess(bytes32,address,bool)": {
        "notice": "!!! Not sure I need this because it is automatically authorized inside the function payToAccessDataAsset"
      }
    },
    "notice": "version 0.1, on 1 november 2020",
    "version": 1
  }
}