{
  "contractName": "ODTAValidator",
  "abi": [
    {
      "inputs": [],
      "payable": false,
      "stateMutability": "nonpayable",
      "type": "constructor"
    },
    {
      "anonymous": false,
      "inputs": [
        {
          "indexed": false,
          "internalType": "address",
          "name": "_dataAssetProducerID",
          "type": "address"
        },
        {
          "indexed": false,
          "internalType": "address",
          "name": "_dataAssetConsumerID",
          "type": "address"
        },
        {
          "indexed": false,
          "internalType": "bytes32",
          "name": "_dataAssetID",
          "type": "bytes32"
        },
        {
          "indexed": false,
          "internalType": "uint256",
          "name": "value",
          "type": "uint256"
        }
      ],
      "name": "eventDataAccessPaidFailure",
      "type": "event"
    },
    {
      "anonymous": false,
      "inputs": [
        {
          "indexed": false,
          "internalType": "address",
          "name": "_dataAssetProducerID",
          "type": "address"
        },
        {
          "indexed": false,
          "internalType": "address",
          "name": "_dataAssetConsumerID",
          "type": "address"
        },
        {
          "indexed": false,
          "internalType": "bytes32",
          "name": "_dataAssetID",
          "type": "bytes32"
        },
        {
          "indexed": false,
          "internalType": "uint256",
          "name": "value",
          "type": "uint256"
        }
      ],
      "name": "eventDataAccessPaidSuccessfull",
      "type": "event"
    },
    {
      "anonymous": false,
      "inputs": [
        {
          "indexed": false,
          "internalType": "address",
          "name": "_dataAssetProducerID",
          "type": "address"
        },
        {
          "indexed": false,
          "internalType": "address",
          "name": "_dataAssetConsumerID",
          "type": "address"
        },
        {
          "indexed": false,
          "internalType": "bytes32",
          "name": "_dataAssetID",
          "type": "bytes32"
        }
      ],
      "name": "eventDeleteDataAccess",
      "type": "event"
    },
    {
      "anonymous": false,
      "inputs": [
        {
          "indexed": true,
          "internalType": "address",
          "name": "_dataAssetProducerID",
          "type": "address"
        },
        {
          "indexed": true,
          "internalType": "address",
          "name": "_dataAssetConsumerID",
          "type": "address"
        },
        {
          "indexed": true,
          "internalType": "bytes32",
          "name": "_dataAssetID",
          "type": "bytes32"
        }
      ],
      "name": "eventGetDataAccess",
      "type": "event"
    },
    {
      "anonymous": false,
      "inputs": [
        {
          "indexed": false,
          "internalType": "address",
          "name": "_dataAssetProducerID",
          "type": "address"
        },
        {
          "indexed": false,
          "internalType": "address",
          "name": "_dataAssetConsumerID",
          "type": "address"
        },
        {
          "indexed": false,
          "internalType": "bytes32",
          "name": "_dataAssetID",
          "type": "bytes32"
        }
      ],
      "name": "eventRefuseDataAccess",
      "type": "event"
    },
    {
      "anonymous": false,
      "inputs": [
        {
          "indexed": false,
          "internalType": "address",
          "name": "_dataAssetProducerID",
          "type": "address"
        },
        {
          "indexed": false,
          "internalType": "address",
          "name": "_dataAssetConsumerID",
          "type": "address"
        },
        {
          "indexed": false,
          "internalType": "bytes32",
          "name": "_dataAssetID",
          "type": "bytes32"
        }
      ],
      "name": "eventSetDataAccess",
      "type": "event"
    },
    {
      "constant": true,
      "inputs": [
        {
          "internalType": "bytes32",
          "name": "",
          "type": "bytes32"
        },
        {
          "internalType": "address",
          "name": "",
          "type": "address"
        }
      ],
      "name": "dataAssetAccessStore",
      "outputs": [
        {
          "internalType": "bool",
          "name": "dataAssetAccessStatus",
          "type": "bool"
        },
        {
          "internalType": "string",
          "name": "dataAssetAccessStartDate",
          "type": "string"
        },
        {
          "internalType": "string",
          "name": "dataAssetAccessEndDate",
          "type": "string"
        }
      ],
      "payable": false,
      "stateMutability": "view",
      "type": "function"
    },
    {
      "constant": true,
      "inputs": [
        {
          "internalType": "bytes32",
          "name": "",
          "type": "bytes32"
        }
      ],
      "name": "dataAssetIDList",
      "outputs": [
        {
          "internalType": "bool",
          "name": "",
          "type": "bool"
        }
      ],
      "payable": false,
      "stateMutability": "view",
      "type": "function"
    },
    {
      "constant": true,
      "inputs": [
        {
          "internalType": "bytes32",
          "name": "",
          "type": "bytes32"
        }
      ],
      "name": "dataAssetStore",
      "outputs": [
        {
          "internalType": "address",
          "name": "dataAssetProducerID",
          "type": "address"
        },
        {
          "internalType": "enum ODTAValidator.accessType",
          "name": "dataAssetAccessType",
          "type": "uint8"
        },
        {
          "internalType": "uint256",
          "name": "dataAssetAccessPrice",
          "type": "uint256"
        },
        {
          "internalType": "string",
          "name": "dataAssetAccessDuration",
          "type": "string"
        },
        {
          "internalType": "bytes32",
          "name": "proofOfIntegrigyDataAsset",
          "type": "bytes32"
        },
        {
          "internalType": "bytes32",
          "name": "proofOfSourceAuthenticity",
          "type": "bytes32"
        },
        {
          "internalType": "bytes32",
          "name": "proofOfIntegrityUseProcessingConditions",
          "type": "bytes32"
        }
      ],
      "payable": false,
      "stateMutability": "view",
      "type": "function"
    },
    {
      "constant": true,
      "inputs": [
        {
          "internalType": "address",
          "name": "",
          "type": "address"
        },
        {
          "internalType": "bytes32",
          "name": "",
          "type": "bytes32"
        }
      ],
      "name": "dataProducerStore",
      "outputs": [
        {
          "internalType": "bool",
          "name": "",
          "type": "bool"
        }
      ],
      "payable": false,
      "stateMutability": "view",
      "type": "function"
    },
    {
      "constant": false,
      "inputs": [
        {
          "internalType": "bytes32",
          "name": "_dataAssetID",
          "type": "bytes32"
        },
        {
          "internalType": "address",
          "name": "_dataAssetProducerID",
          "type": "address"
        },
        {
          "internalType": "string",
          "name": "_dataAssetAccessType",
          "type": "string"
        },
        {
          "internalType": "uint256",
          "name": "_dataAssetAccessPrice",
          "type": "uint256"
        },
        {
          "internalType": "string",
          "name": "_dataAssetAccessDuration",
          "type": "string"
        },
        {
          "internalType": "bytes32",
          "name": "_proofOfIntegrigyDataAsset",
          "type": "bytes32"
        },
        {
          "internalType": "bytes32",
          "name": "_proofOfSourceAuthenticity",
          "type": "bytes32"
        },
        {
          "internalType": "bytes32",
          "name": "_proofOfIntegrityUseProcessingConditions",
          "type": "bytes32"
        }
      ],
      "name": "insertDataAsset",
      "outputs": [],
      "payable": false,
      "stateMutability": "nonpayable",
      "type": "function"
    },
    {
      "constant": true,
      "inputs": [
        {
          "internalType": "bytes32",
          "name": "_dataAssetID",
          "type": "bytes32"
        }
      ],
      "name": "getDataAsset",
      "outputs": [
        {
          "internalType": "address",
          "name": "_dataAssetProducerID",
          "type": "address"
        },
        {
          "internalType": "string",
          "name": "_dataAssetAccessType",
          "type": "string"
        },
        {
          "internalType": "uint256",
          "name": "_dataAssetAccessPrice",
          "type": "uint256"
        },
        {
          "internalType": "string",
          "name": "_dataAssetAccessDuration",
          "type": "string"
        },
        {
          "internalType": "bytes32",
          "name": "_proofOfIntegrigyDataAsset",
          "type": "bytes32"
        },
        {
          "internalType": "bytes32",
          "name": "_proofOfSourceAuthenticity",
          "type": "bytes32"
        },
        {
          "internalType": "bytes32",
          "name": "_proofOfIntegrityUseProcessingConditions",
          "type": "bytes32"
        }
      ],
      "payable": false,
      "stateMutability": "view",
      "type": "function"
    },
    {
      "constant": true,
      "inputs": [
        {
          "internalType": "bytes32",
          "name": "_dataAssetID",
          "type": "bytes32"
        }
      ],
      "name": "getDataAssetAccessType",
      "outputs": [
        {
          "internalType": "string",
          "name": "_dataAssetAccessType",
          "type": "string"
        }
      ],
      "payable": false,
      "stateMutability": "view",
      "type": "function"
    },
    {
      "constant": false,
      "inputs": [
        {
          "internalType": "bytes32",
          "name": "_dataAssetID",
          "type": "bytes32"
        },
        {
          "internalType": "address",
          "name": "_dataAssetConsumerID",
          "type": "address"
        },
        {
          "internalType": "bool",
          "name": "_access",
          "type": "bool"
        }
      ],
      "name": "setDataAssetAccess",
      "outputs": [],
      "payable": false,
      "stateMutability": "nonpayable",
      "type": "function"
    },
    {
      "constant": true,
      "inputs": [
        {
          "internalType": "bytes32",
          "name": "_dataAssetID",
          "type": "bytes32"
        },
        {
          "internalType": "address",
          "name": "_dataAssetConsumerID",
          "type": "address"
        }
      ],
      "name": "getDataAssetAccess",
      "outputs": [
        {
          "internalType": "bool",
          "name": "_access",
          "type": "bool"
        }
      ],
      "payable": false,
      "stateMutability": "view",
      "type": "function"
    },
    {
      "constant": true,
      "inputs": [],
      "name": "getDataAssetTotal",
      "outputs": [
        {
          "internalType": "uint256",
          "name": "_dataAssetTotal",
          "type": "uint256"
        }
      ],
      "payable": false,
      "stateMutability": "view",
      "type": "function"
    }
  ],
  "bytecode": "0x608060405234801561001057600080fd5b50336000806101000a81548173ffffffffffffffffffffffffffffffffffffffff021916908373ffffffffffffffffffffffffffffffffffffffff1602179055506000600481905550611f58806100686000396000f3fe608060405234801561001057600080fd5b506004361061009e5760003560e01c8063942001fc11610066578063942001fc1461030557806394ea75f514610467578063a709703d146104cd578063ca3cf27e146105d8578063fc7e1e041461077d5761009e565b8063076c8212146100a3578063092257eb146101e15780633becbe5c146101ff578063533e671114610259578063762f45b61461029f575b600080fd5b6100ef600480360360408110156100b957600080fd5b8101908080359060200190929190803573ffffffffffffffffffffffffffffffffffffffff169060200190929190505050610824565b60405180841515151581526020018060200180602001838103835285818151815260200191508051906020019080838360005b8381101561013d578082015181840152602081019050610122565b50505050905090810190601f16801561016a5780820380516001836020036101000a031916815260200191505b50838103825284818151815260200191508051906020019080838360005b838110156101a3578082015181840152602081019050610188565b50505050905090810190601f1680156101d05780820380516001836020036101000a031916815260200191505b509550505050505060405180910390f35b6101e9610998565b6040518082815260200191505060405180910390f35b6102576004803603606081101561021557600080fd5b8101908080359060200190929190803573ffffffffffffffffffffffffffffffffffffffff1690602001909291908035151590602001909291905050506109a2565b005b6102856004803603602081101561026f57600080fd5b8101908080359060200190929190505050610d16565b604051808215151515815260200191505060405180910390f35b6102eb600480360360408110156102b557600080fd5b8101908080359060200190929190803573ffffffffffffffffffffffffffffffffffffffff169060200190929190505050610d36565b604051808215151515815260200191505060405180910390f35b6103316004803603602081101561031b57600080fd5b8101908080359060200190929190505050610e61565b604051808873ffffffffffffffffffffffffffffffffffffffff1673ffffffffffffffffffffffffffffffffffffffff1681526020018060200187815260200180602001868152602001858152602001848152602001838103835289818151815260200191508051906020019080838360005b838110156103bf5780820151818401526020810190506103a4565b50505050905090810190601f1680156103ec5780820380516001836020036101000a031916815260200191505b50838103825287818151815260200191508051906020019080838360005b8381101561042557808201518184015260208101905061040a565b50505050905090810190601f1680156104525780820380516001836020036101000a031916815260200191505b50995050505050505050505060405180910390f35b6104b36004803603604081101561047d57600080fd5b81019080803573ffffffffffffffffffffffffffffffffffffffff169060200190929190803590602001909291905050506114ff565b604051808215151515815260200191505060405180910390f35b6104f9600480360360208110156104e357600080fd5b810190808035906020019092919050505061152e565b604051808873ffffffffffffffffffffffffffffffffffffffff1673ffffffffffffffffffffffffffffffffffffffff16815260200187600181111561053b57fe5b60ff16815260200186815260200180602001858152602001848152602001838152602001828103825286818151815260200191508051906020019080838360005b8381101561059757808201518184015260208101905061057c565b50505050905090810190601f1680156105c45780820380516001836020036101000a031916815260200191505b509850505050505050505060405180910390f35b61077b60048036036101008110156105ef57600080fd5b8101908080359060200190929190803573ffffffffffffffffffffffffffffffffffffffff1690602001909291908035906020019064010000000081111561063657600080fd5b82018360208201111561064857600080fd5b8035906020019184600183028401116401000000008311171561066a57600080fd5b91908080601f016020809104026020016040519081016040528093929190818152602001838380828437600081840152601f19601f82011690508083019250505050505050919291929080359060200190929190803590602001906401000000008111156106d757600080fd5b8201836020820111156106e957600080fd5b8035906020019184600183028401116401000000008311171561070b57600080fd5b91908080601f016020809104026020016040519081016040528093929190818152602001838380828437600081840152601f19601f820116905080830192505050505050509192919290803590602001909291908035906020019092919080359060200190929190505050611635565b005b6107a96004803603602081101561079357600080fd5b8101908080359060200190929190505050611ccc565b6040518080602001828103825283818151815260200191508051906020019080838360005b838110156107e95780820151818401526020810190506107ce565b50505050905090810190601f1680156108165780820380516001836020036101000a031916815260200191505b509250505060405180910390f35b6005602052816000526040600020602052806000526040600020600091509150508060000160009054906101000a900460ff1690806001018054600181600116156101000203166002900480601f0160208091040260200160405190810160405280929190818152602001828054600181600116156101000203166002900480156108f05780601f106108c5576101008083540402835291602001916108f0565b820191906000526020600020905b8154815290600101906020018083116108d357829003601f168201915b505050505090806002018054600181600116156101000203166002900480601f01602080910402602001604051908101604052809291908181526020018280546001816001161561010002031660029004801561098e5780601f106109635761010080835404028352916020019161098e565b820191906000526020600020905b81548152906001019060200180831161097157829003601f168201915b5050505050905083565b6000600454905090565b8260011515600160003373ffffffffffffffffffffffffffffffffffffffff1673ffffffffffffffffffffffffffffffffffffffff168152602001908152602001600020600083815260200190815260200160002060009054906101000a900460ff16151514610a1157600080fd5b816005600086815260200190815260200160002060008573ffffffffffffffffffffffffffffffffffffffff1673ffffffffffffffffffffffffffffffffffffffff16815260200190815260200160002060000160006101000a81548160ff0219169083151502179055506040518060400160405280600d81526020017f436f6d696e6746656174757265000000000000000000000000000000000000008152506005600086815260200190815260200160002060008573ffffffffffffffffffffffffffffffffffffffff1673ffffffffffffffffffffffffffffffffffffffff1681526020019081526020016000206001019080519060200190610b18929190611e7e565b506040518060400160405280600d81526020017f436f6d696e6746656174757265000000000000000000000000000000000000008152506005600086815260200190815260200160002060008573ffffffffffffffffffffffffffffffffffffffff1673ffffffffffffffffffffffffffffffffffffffff1681526020019081526020016000206002019080519060200190610bb5929190611e7e565b50600115158215151415610c63577f5509a60277495dcdc76b70c446103629557b7ad207d3e78ca3300f3fa8320ef9338486604051808473ffffffffffffffffffffffffffffffffffffffff1673ffffffffffffffffffffffffffffffffffffffff1681526020018373ffffffffffffffffffffffffffffffffffffffff1673ffffffffffffffffffffffffffffffffffffffff168152602001828152602001935050505060405180910390a15b600015158215151415610d10577fb8a6f2771d229dc1d10fe3fd714f1f6fb2d6ef911831f97d7e59b5e006b8b26d338486604051808473ffffffffffffffffffffffffffffffffffffffff1673ffffffffffffffffffffffffffffffffffffffff1681526020018373ffffffffffffffffffffffffffffffffffffffff1673ffffffffffffffffffffffffffffffffffffffff168152602001828152602001935050505060405180910390a15b50505050565b60026020528060005260406000206000915054906101000a900460ff1681565b6000600115156002600085815260200190815260200160002060009054906101000a900460ff1615151415610e5a5760006001811115610d7257fe5b6003600085815260200190815260200160002060000160149054906101000a900460ff166001811115610da157fe5b1415610db05760019050610e5b565b600180811115610dbc57fe5b6003600085815260200190815260200160002060000160149054906101000a900460ff166001811115610deb57fe5b1415610e59576005600084815260200190815260200160002060008373ffffffffffffffffffffffffffffffffffffffff1673ffffffffffffffffffffffffffffffffffffffff16815260200190815260200160002060000160009054906101000a900460ff169050610e5b565b5b5b92915050565b6000606060006060600080600060011515600260008a815260200190815260200160002060009054906101000a900460ff16151514156114f45760006001811115610ea857fe5b600360008a815260200190815260200160002060000160149054906101000a900460ff166001811115610ed757fe5b1415611064576040518060400160405280600481526020017f667265650000000000000000000000000000000000000000000000000000000081525095506003600089815260200190815260200160002060000160009054906101000a900473ffffffffffffffffffffffffffffffffffffffff16965060036000898152602001908152602001600020600101549450600360008981526020019081526020016000206002018054600181600116156101000203166002900480601f0160208091040260200160405190810160405280929190818152602001828054600181600116156101000203166002900480156110115780601f10610fe657610100808354040283529160200191611011565b820191906000526020600020905b815481529060010190602001808311610ff457829003601f168201915b505050505093506003600089815260200190815260200160002060030154925060036000898152602001908152602001600020600401549150600360008981526020019081526020016000206005015490505b60018081111561107057fe5b600360008a815260200190815260200160002060000160149054906101000a900460ff16600181111561109f57fe5b148015611110575060011515600560008a815260200190815260200160002060003373ffffffffffffffffffffffffffffffffffffffff1673ffffffffffffffffffffffffffffffffffffffff16815260200190815260200160002060000160009054906101000a900460ff161515145b1561129c576040518060400160405280600681526020017f706179696e67000000000000000000000000000000000000000000000000000081525095506003600089815260200190815260200160002060000160009054906101000a900473ffffffffffffffffffffffffffffffffffffffff16965060036000898152602001908152602001600020600101549450600360008981526020019081526020016000206002018054600181600116156101000203166002900480601f0160208091040260200160405190810160405280929190818152602001828054600181600116156101000203166002900480156112495780601f1061121e57610100808354040283529160200191611249565b820191906000526020600020905b81548152906001019060200180831161122c57829003601f168201915b505050505093506003600089815260200190815260200160002060030154925060036000898152602001908152602001600020600401549150600360008981526020019081526020016000206005015490505b6001808111156112a857fe5b600360008a815260200190815260200160002060000160149054906101000a900460ff1660018111156112d757fe5b148015611349575060011515600560008a815260200190815260200160002060003373ffffffffffffffffffffffffffffffffffffffff1673ffffffffffffffffffffffffffffffffffffffff16815260200190815260200160002060000160009054906101000a900460ff16151514155b156114f3576040518060400160405280600681526020017f706179696e67000000000000000000000000000000000000000000000000000081525095506003600089815260200190815260200160002060000160009054906101000a900473ffffffffffffffffffffffffffffffffffffffff16965060036000898152602001908152602001600020600101549450600360008981526020019081526020016000206002018054600181600116156101000203166002900480601f0160208091040260200160405190810160405280929190818152602001828054600181600116156101000203166002900480156114825780601f1061145757610100808354040283529160200191611482565b820191906000526020600020905b81548152906001019060200180831161146557829003601f168201915b505050505093507f726566757365640000000000000000000000000000000000000000000000000092507f726566757365640000000000000000000000000000000000000000000000000091507f726566757365640000000000000000000000000000000000000000000000000090505b5b919395979092949650565b60016020528160005260406000206020528060005260406000206000915091509054906101000a900460ff1681565b60036020528060005260406000206000915090508060000160009054906101000a900473ffffffffffffffffffffffffffffffffffffffff16908060000160149054906101000a900460ff1690806001015490806002018054600181600116156101000203166002900480601f0160208091040260200160405190810160405280929190818152602001828054600181600116156101000203166002900480156116195780601f106115ee57610100808354040283529160200191611619565b820191906000526020600020905b8154815290600101906020018083116115fc57829003601f168201915b5050505050908060030154908060040154908060050154905087565b8633604051602001808273ffffffffffffffffffffffffffffffffffffffff1673ffffffffffffffffffffffffffffffffffffffff1660601b81526014019150506040516020818303038152906040528051906020012081604051602001808273ffffffffffffffffffffffffffffffffffffffff1673ffffffffffffffffffffffffffffffffffffffff1660601b815260140191505060405160208183030381529060405280519060200120146116ec57600080fd5b60011515600160008a73ffffffffffffffffffffffffffffffffffffffff1673ffffffffffffffffffffffffffffffffffffffff16815260200190815260200160002060008b815260200190815260200160002060009054906101000a900460ff1615151415801561178957503373ffffffffffffffffffffffffffffffffffffffff168873ffffffffffffffffffffffffffffffffffffffff16145b15611cc1576001600260008b815260200190815260200160002060006101000a81548160ff02191690831515021790555060018060008a73ffffffffffffffffffffffffffffffffffffffff1673ffffffffffffffffffffffffffffffffffffffff16815260200190815260200160002060008b815260200190815260200160002060006101000a81548160ff02191690831515021790555087600360008b815260200190815260200160002060000160006101000a81548173ffffffffffffffffffffffffffffffffffffffff021916908373ffffffffffffffffffffffffffffffffffffffff16021790555060405160200180807f6672656500000000000000000000000000000000000000000000000000000000815250600401905060405160208183030381529060405280519060200120876040516020018082805190602001908083835b602083106118f557805182526020820191506020810190506020830392506118d2565b6001836020036101000a03801982511681845116808217855250505050505090500191505060405160208183030381529060405280519060200120141561196f576000600360008b815260200190815260200160002060000160146101000a81548160ff0219169083600181111561196957fe5b02179055505b60405160200180807f706179696e670000000000000000000000000000000000000000000000000000815250600601905060405160208183030381529060405280519060200120876040516020018082805190602001908083835b602083106119ed57805182526020820191506020810190506020830392506119ca565b6001836020036101000a038019825116818451168082178552505050505050905001915050604051602081830303815290604052805190602001201415611c0d576001600360008b815260200190815260200160002060000160146101000a81548160ff02191690836001811115611a6157fe5b02179055506001600560008b815260200190815260200160002060008a73ffffffffffffffffffffffffffffffffffffffff1673ffffffffffffffffffffffffffffffffffffffff16815260200190815260200160002060000160006101000a81548160ff0219169083151502179055506040518060400160405280600d81526020017f436f6d696e674665617475726500000000000000000000000000000000000000815250600560008b815260200190815260200160002060008a73ffffffffffffffffffffffffffffffffffffffff1673ffffffffffffffffffffffffffffffffffffffff1681526020019081526020016000206001019080519060200190611b6e929190611e7e565b506040518060400160405280600d81526020017f436f6d696e674665617475726500000000000000000000000000000000000000815250600560008b815260200190815260200160002060008a73ffffffffffffffffffffffffffffffffffffffff1673ffffffffffffffffffffffffffffffffffffffff1681526020019081526020016000206002019080519060200190611c0b929190611e7e565b505b85600360008b81526020019081526020016000206001018190555084600360008b81526020019081526020016000206002019080519060200190611c52929190611e7e565b5083600360008b81526020019081526020016000206003018190555082600360008b81526020019081526020016000206004018190555081600360008b815260200190815260200160002060050181905550611cba6001600454611df690919063ffffffff16565b6004819055505b505050505050505050565b6060600115156002600084815260200190815260200160002060009054906101000a900460ff1615151415611df15760006001811115611d0857fe5b6003600084815260200190815260200160002060000160149054906101000a900460ff166001811115611d3757fe5b1415611d76576040518060400160405280600481526020017f667265650000000000000000000000000000000000000000000000000000000081525090505b600180811115611d8257fe5b6003600084815260200190815260200160002060000160149054906101000a900460ff166001811115611db157fe5b1415611df0576040518060400160405280600681526020017f706179696e67000000000000000000000000000000000000000000000000000081525090505b5b919050565b600080828401905083811015611e74576040517f08c379a00000000000000000000000000000000000000000000000000000000081526004018080602001828103825260118152602001807f4164646974696f6e206f766572666c6f7700000000000000000000000000000081525060200191505060405180910390fd5b8091505092915050565b828054600181600116156101000203166002900490600052602060002090601f016020900481019282601f10611ebf57805160ff1916838001178555611eed565b82800160010185558215611eed579182015b82811115611eec578251825591602001919060010190611ed1565b5b509050611efa9190611efe565b5090565b611f2091905b80821115611f1c576000816000905550600101611f04565b5090565b9056fea265627a7a7231582098b61e2d2fdbc8dd693986d9df68342c0031419dc350b3ec1e7310eb6fc140e764736f6c63430005100032",
  "source": "// SPDX-License-Identifier: EUPL V1.2\n//pragma solidity <=0.8.0;\npragma solidity ^0.5.16;\n\n// Import a lib managing overflow on add/sub\nimport \"./utils/SafeMath.sol\";\n\n/** @title ODTAValidator SC is in charge of managing DataAsset Trust Anchors\n    @author Marc-Antoine Lemaire from Company IP Convergence\n    @notice version 0.1, on 1 november 2020\n */\ncontract ODTAValidator { \n    using SafeMath for uint256;\n// ------------ Define the States Variables of the SC ----------------\n\n// -- Objects used by Data Producer --\n    address internal owner;\n    /// dataProducerStore = mapping of dataProducerID Address to mapping of Hash Data Asset produced by him set to true to indicate produced\n    mapping (address => mapping(bytes32 => bool)) public dataProducerStore;\n    /// dataProdudcerDataAssetList = An array of dataAssetID produced by a dataProducerID\n    /// !!! To Be Potentially suppress   bytes32[] public dataProducerDataAssetList;\n\n// -- Objects used for managing Data Asset --\n    /// dataAssetIDList = mapping of all the dataAssetID managed by the SC. It has value true if present\n    /// !!! to check if needed because overlap with dataProducerStore[dataAssetProducerID][dataAsset]\n    mapping (bytes32 => bool) public dataAssetIDList;\n    /// accessType : enum saying if the access is free or you must pay\n    enum accessType {free, paying}\n    /// dataAssetObject = structure that containes all required Data Asset Information to manage Trust and access control from SC\n    struct dataAssetObject{\n        address dataAssetProducerID;\n        accessType dataAssetAccessType; // Same access type for all, but we could in the future move that parameter to the dataAssetAccessObject\n        uint256 dataAssetAccessPrice; // in wei (1 Ether = 1e18)\n        string dataAssetAccessDuration; // in Number of days\n        bytes32 proofOfIntegrigyDataAsset;\n        bytes32 proofOfSourceAuthenticity;\n        bytes32 proofOfIntegrityUseProcessingConditions;\n    }\n    /// dataAssetStore = mapping of all the dataAssetID (Hash of DataAsset) and their linked dataAssetObject \n    mapping (bytes32 => dataAssetObject) public dataAssetStore;\n    /// dataAssetTotal = Total number of Asset Anchored on the ODTA Registry\n    uint256 dataAssetTotal;\n\n// -- Objects used for managing Access to the Data Asset (only records for dataAssetAccessType = paying) --\n    /// dataAssetAccessObject = structure that contains the access parameter for a Data Asset, only if paying resource\n    struct dataAssetAccessObject{\n        bool dataAssetAccessStatus;\n        string dataAssetAccessStartDate;\n        string dataAssetAccessEndDate;\n    }\n    /// dataAssetAccessStore = mapping of all the dataAssetID to the mapping of their dataConsumerID address to their dataAssetAccessObject\n    /// ! if the dataAssetAccessType = Free, we don't created any entry on DataAssetAccessStore for the Data Asset\n    mapping (bytes32 => mapping(address => dataAssetAccessObject)) public dataAssetAccessStore;\n\n// -- Events needed to manage notification on operation on DataAsset --\n    /// eventSetDataAccess = event to be generated every time a DataAssetProducerID give Access to a Data Asset to a Data Consumer\n    event eventSetDataAccess(address _dataAssetProducerID, address _dataAssetConsumerID, bytes32 _dataAssetID);\n     /// eventDeleteDataAccess = event to be generated every time a DataAssetProducerID removes the Access to a Data Asset to a Data Consumer\n    event eventDeleteDataAccess(address _dataAssetProducerID, address _dataAssetConsumerID, bytes32 _dataAssetID);\n    /// eventGetDataAccess = event to be generated every time a DataAssetConsumerID getAccess to a Data Asset\n    event eventGetDataAccess(address indexed _dataAssetProducerID, address indexed _dataAssetConsumerID, bytes32 indexed _dataAssetID);\n    /// eventRefuseDataAccess = event to be generated every time a DataAssetConsumerID has not yet access to a Data Asset because he has not yet paid the fee\n    event eventRefuseDataAccess(address _dataAssetProducerID, address _dataAssetConsumerID, bytes32 _dataAssetID);\n    /// eventDataAccessPaidSuccessfull = event to be generated every time a a Data Consumer paid successfully for the access to a paying Data Asset\n    event eventDataAccessPaidSuccessfull(address _dataAssetProducerID, address _dataAssetConsumerID, bytes32 _dataAssetID, uint256 value);\n    /// eventDataAccessPaidFailure = event to be generated every time a a Data Consumer payment failed for the access to a paying Data Asset\n    event eventDataAccessPaidFailure(address _dataAssetProducerID, address _dataAssetConsumerID, bytes32 _dataAssetID, uint256 value);\n\n// -- Modifier needed to perfom different control on some SC Data Asset --\n    /// isOwner modifer: checks if the msg.sender is the owner of the contract\n    modifier isOwner() {\n        require(msg.sender == owner);\n        _;\n    }\n    /// isProducerOfExistingDataAsset: check if the msg.send is well the DataProducer of an existing DataAsset well present in dataProducerStore\n    modifier isProducerOfExistingDataAsset(bytes32 _dataAssetID){\n        require(dataProducerStore[msg.sender][_dataAssetID] == true);\n        _;\n    }\n    /// isDataProducer: check if the msg.send is the same as Data Asset requested producer\n    modifier isDataProducer(address _dataAssetProducerID){\n        require(keccak256(abi.encodePacked(_dataAssetProducerID)) == keccak256(abi.encodePacked(msg.sender)));\n        _;\n    }\n    /// isDataAssetExistInDataAssetIDList: check if a Data Asset is well presend in the DataAssetIDList\n    modifier isDataAssetExistInDataAssetIDList(bytes32 _dataAssetID){\n        require(dataAssetIDList[_dataAssetID]== true);\n        _;\n    }\n\n// ------------ Define functions of the SC ----------------\n\n    /** @dev Constructor of the ODTAValidator SmartContract\n    */\n    constructor() public{\n        /* set the owner as the person who instantiated the contract. */\n        owner = msg.sender;\n        dataAssetTotal = 0;\n    }\n\n    /** @dev Function to enable account to send ether to this SmartContract via send, transfer or call\n     */ \n\n\n    /** @dev Function in charge of inserting a Data Asset on SC\n        @param _dataAssetID Hash of the Data Asset \n        @param _dataAssetProducerID Address of the dataAsset\n        @param _dataAssetAccessType Type of access {free, paying}\n        @param _dataAssetAccessPrice Price in Ether set by the Data Producer to access the Data Asset, if paying one\n        @param _dataAssetAccessDuration Duration of the access in number of days\n        @param _proofOfIntegrigyDataAsset Hash of the DataAssetValue\n        @param _proofOfSourceAuthenticity Address of the dataAssetProducerID, Etherum address\n        @param _proofOfIntegrityUseProcessingConditions Hash of Use and Processing Conditions of the data Asset\n     */\n     function insertDataAsset (\n                                bytes32 _dataAssetID,\n                                address _dataAssetProducerID,\n                                string memory _dataAssetAccessType,\n                                uint256 _dataAssetAccessPrice,\n                                string memory _dataAssetAccessDuration,\n                                bytes32 _proofOfIntegrigyDataAsset,\n                                bytes32 _proofOfSourceAuthenticity,\n                                bytes32 _proofOfIntegrityUseProcessingConditions) public isDataProducer(_dataAssetProducerID){\n        if(dataProducerStore[_dataAssetProducerID][_dataAssetID] != true && _dataAssetProducerID == msg.sender){\n            dataAssetIDList[_dataAssetID]=true;\n            /// !!! could be overlap with dataAssetIDList (see what I choose)\n            dataProducerStore[_dataAssetProducerID][_dataAssetID]=true;\n            dataAssetStore[_dataAssetID].dataAssetProducerID=_dataAssetProducerID;\n            if(keccak256(abi.encodePacked(_dataAssetAccessType)) == keccak256(abi.encodePacked(\"free\"))){\n                dataAssetStore[_dataAssetID].dataAssetAccessType=accessType.free;\n            }\n            if(keccak256(abi.encodePacked(_dataAssetAccessType)) == keccak256(abi.encodePacked(\"paying\"))){\n                dataAssetStore[_dataAssetID].dataAssetAccessType=accessType.paying;\n                dataAssetAccessStore[_dataAssetID][_dataAssetProducerID].dataAssetAccessStatus=true;\n                dataAssetAccessStore[_dataAssetID][_dataAssetProducerID].dataAssetAccessStartDate=\"ComingFeature\";\n                dataAssetAccessStore[_dataAssetID][_dataAssetProducerID].dataAssetAccessEndDate=\"ComingFeature\";\n                \n            }\n            dataAssetStore[_dataAssetID].dataAssetAccessPrice=_dataAssetAccessPrice;\n            dataAssetStore[_dataAssetID].dataAssetAccessDuration=_dataAssetAccessDuration;\n            dataAssetStore[_dataAssetID].proofOfIntegrigyDataAsset=_proofOfIntegrigyDataAsset;\n            dataAssetStore[_dataAssetID].proofOfSourceAuthenticity=_proofOfSourceAuthenticity;\n            dataAssetStore[_dataAssetID].proofOfIntegrityUseProcessingConditions=_proofOfIntegrityUseProcessingConditions;\n            dataAssetTotal=dataAssetTotal.add(1);\n        } /// !!! Add later on a try catch to give message is already in SC data\n    }\n\n    /** @dev Function in charge of inserting a Data Asset on SC\n        @param _dataAssetID Hash of the dataAssetValue\n        @return _dataAssetProducerID Address of the Data Producer\n        @return _dataAssetAccessType :Type of access {free, paying}\n        @return _dataAssetAccessPrice :Price in Ether set by the Data Producer to access the Data Asset, if paying one\n        @return _dataAssetAccessDuration :Duration of the access in number of days\n        @return _proofOfIntegrigyDataAsset :Hash of the DataAssetValue\n        @return _proofOfSourceAuthenticity :Address of the dataAssetProducerID, Etherum address\n        @return _proofOfIntegrityUseProcessingConditions :Hash of Use and Processing Conditions of the data Asset\n     */\n    function getDataAsset(bytes32 _dataAssetID) public view returns (address _dataAssetProducerID,\n                                                                string memory _dataAssetAccessType,\n                                                                uint256 _dataAssetAccessPrice,\n                                                                string memory _dataAssetAccessDuration,\n                                                                bytes32 _proofOfIntegrigyDataAsset,\n                                                                bytes32 _proofOfSourceAuthenticity,\n                                                                bytes32 _proofOfIntegrityUseProcessingConditions){\n      if(dataAssetIDList[_dataAssetID]==true){\n            if(dataAssetStore[_dataAssetID].dataAssetAccessType == accessType.free){\n                _dataAssetAccessType=\"free\"; //\n                _dataAssetProducerID=dataAssetStore[_dataAssetID].dataAssetProducerID;\n                _dataAssetAccessPrice=dataAssetStore[_dataAssetID].dataAssetAccessPrice;\n                _dataAssetAccessDuration=dataAssetStore[_dataAssetID].dataAssetAccessDuration;\n                _proofOfIntegrigyDataAsset=dataAssetStore[_dataAssetID].proofOfIntegrigyDataAsset;\n                _proofOfSourceAuthenticity=dataAssetStore[_dataAssetID].proofOfSourceAuthenticity;\n                _proofOfIntegrityUseProcessingConditions=dataAssetStore[_dataAssetID].proofOfIntegrityUseProcessingConditions;\n                //emit eventGetDataAccess(_dataAssetProducerID,msg.sender,_dataAssetID);\n            }\n            if(dataAssetStore[_dataAssetID].dataAssetAccessType == accessType.paying && dataAssetAccessStore[_dataAssetID][msg.sender].dataAssetAccessStatus==true){\n                _dataAssetAccessType=\"paying\";\n                _dataAssetProducerID=dataAssetStore[_dataAssetID].dataAssetProducerID;\n                _dataAssetAccessPrice=dataAssetStore[_dataAssetID].dataAssetAccessPrice;\n                _dataAssetAccessDuration=dataAssetStore[_dataAssetID].dataAssetAccessDuration;\n                _proofOfIntegrigyDataAsset=dataAssetStore[_dataAssetID].proofOfIntegrigyDataAsset;\n                _proofOfSourceAuthenticity=dataAssetStore[_dataAssetID].proofOfSourceAuthenticity;\n                _proofOfIntegrityUseProcessingConditions=dataAssetStore[_dataAssetID].proofOfIntegrityUseProcessingConditions;\n                //emit eventGetDataAccess(_dataAssetProducerID,msg.sender,_dataAssetID);\n            }\n            if(dataAssetStore[_dataAssetID].dataAssetAccessType == accessType.paying && dataAssetAccessStore[_dataAssetID][msg.sender].dataAssetAccessStatus!=true){\n                _dataAssetAccessType=\"paying\";\n                _dataAssetProducerID=dataAssetStore[_dataAssetID].dataAssetProducerID;\n                _dataAssetAccessPrice=dataAssetStore[_dataAssetID].dataAssetAccessPrice;\n                _dataAssetAccessDuration=dataAssetStore[_dataAssetID].dataAssetAccessDuration;\n                _proofOfIntegrigyDataAsset=\"refused\";\n                _proofOfSourceAuthenticity=\"refused\";\n                _proofOfIntegrityUseProcessingConditions=\"refused\";\n                //emit eventRefuseDataAccess(_dataAssetProducerID,msg.sender,_dataAssetID);\n            }                                                           \n        }\n    }\n    /** @dev Function in charge of geting the access type for a dataAssetID, so knowing if {free, paying}\n        @param _dataAssetID Hash of the dataAssetValue a DataConsumer is trying to Access\n        @return _dataAssetAccessType the type of access {free, paying} to access the Data Asset\n    */\n    function getDataAssetAccessType(bytes32 _dataAssetID) public view returns (string memory _dataAssetAccessType){\n        if(dataAssetIDList[_dataAssetID]==true){\n            if(dataAssetStore[_dataAssetID].dataAssetAccessType == accessType.free){\n                _dataAssetAccessType=\"free\";\n            }\n            if(dataAssetStore[_dataAssetID].dataAssetAccessType == accessType.paying){\n               _dataAssetAccessType=\"paying\";\n            }\n        } /// Add trow error is dataAssetID is not in dataAssetStore\n    }\n    /** @dev Function to give access to a Data Asset Consumer to a Data Asset. This function is called by the Data Asset Producer\n        @param _dataAssetID Hash of the dataAssetValue for which the Data Producer wants to give an authorization\n        @param _dataAssetConsumerID Address of the Dat Asset Consumer that could have the access (if free no access needed to be setup)\n    */\n    /// !!! Not sure I need this because it is automatically authorized inside the function payToAccessDataAsset\n    function setDataAssetAccess(bytes32 _dataAssetID, address _dataAssetConsumerID,bool _access) public isProducerOfExistingDataAsset(_dataAssetID){\n        dataAssetAccessStore[_dataAssetID][_dataAssetConsumerID].dataAssetAccessStatus=_access;\n        dataAssetAccessStore[_dataAssetID][_dataAssetConsumerID].dataAssetAccessStartDate=\"ComingFeature\";\n        dataAssetAccessStore[_dataAssetID][_dataAssetConsumerID].dataAssetAccessEndDate=\"ComingFeature\";\n        /// event emitted to notify the _dataAssetConsumerID he has well received access to the Data Asset, following his succefull money transaction\n        if(_access == true){\n            emit eventSetDataAccess(msg.sender, _dataAssetConsumerID, _dataAssetID);\n        }\n        if(_access==false){\n            emit eventDeleteDataAccess(msg.sender, _dataAssetConsumerID, _dataAssetID);\n        }\n        \n    }\n    /** @dev Function in charge of geting the access type for a dataAssetID, so knowing if {free, paying}\n        @param _dataAssetID Hash of the dataAssetValue a DataConsumer is trying to Access\n        @param _dataAssetConsumerID Address of the consumer we want to know if he has received the access from the Data Producer\n        @return _access Boolean indicating if the dataAssetConsumerID has access to the _dataAssetID\n    */\n    function getDataAssetAccess(bytes32 _dataAssetID, address _dataAssetConsumerID) public view returns (bool _access){\n        if(dataAssetIDList[_dataAssetID]==true){\n           if(dataAssetStore[_dataAssetID].dataAssetAccessType == accessType.free){\n                return true;\n            }\n            if(dataAssetStore[_dataAssetID].dataAssetAccessType == accessType.paying){\n                return dataAssetAccessStore[_dataAssetID][_dataAssetConsumerID].dataAssetAccessStatus;\n            } \n           \n        } /// Add trow error is dataAssetID is not in dataAssetStore\n    }\n    \n    /** @dev Function in charge of getting the number of Data Asset currently manage by the ODTA Registry\n        @return _dataAssetTotal uint256 indicating the total number of Data Asset anchored on the ODTA Registy\n    */\n    function getDataAssetTotal() public view returns (uint256 _dataAssetTotal){\n        return dataAssetTotal;\n    }\n    \n    \n    /** @dev Function to be called by the Data Consumer, to pay for accessing the Data Asset if the Data Producer has specify paying access conditions\n        @param _dataAssetID Hash of the dataAssetValue for which a user is going to pay for accessing it\n        @param _toDestination Address of the Data Producer of the Asset that should receive the money paid by the consumer\n    */\n    /// ! Not Implemented for the Project Course\n    //function payToAccessDataAsset(bytes32 _dataAssetID, address payable _toDestination) public payable isDataAssetExistInDataAssetIDList(_dataAssetID){\n    //    if(dataAssetAccessStore[_dataAssetID][msg.sender].dataAssetAccessStatus!=true && dataAssetStore[_dataAssetID].dataAssetProducerID ==_toDestination){\n    //        require(msg.value >= dataAssetStore[_dataAssetID].dataAssetAccessPrice, \"Insufficient funds\"); // !!! msg.value is in WEI Unit (1 Ether = 1e18 wei)\n            /// Autorization is set to the msg.sender for the Data Asset\n    //        dataAssetAccessStore[_dataAssetID][msg.sender].dataAssetAccessStatus=true; // Prevent Reentrancy Issue\n    //        dataAssetAccessStore[_dataAssetID][msg.sender].dataAssetAccessStartDate=\"ComingFeature\";\n    //        dataAssetAccessStore[_dataAssetID][msg.sender].dataAssetAccessEndDate=\"ComingFeature\";\n    //        emit eventSetDataAccess(_toDestination, msg.sender, _dataAssetID);\n    //        emit eventDataAccessPaidSuccessfull(dataAssetStore[_dataAssetID].dataAssetProducerID, msg.sender, _dataAssetID, dataAssetStore[_dataAssetID].dataAssetAccessPrice);\n    //        _toDestination.transfer(msg.value); // Prevent Reentrancy Issue, by puting the call to extenal function at the end\n    //    } /// !!! To be optimized later on v2.0 because not secure optimal for money transert\n    //}\n    \n\n}\n\n\n\n\n",
  "sourcePath": "/Users/lemaima/Documents/devTest/TrustedDistributedOpenDataRegistry/contracts/ODTAValidator.sol",
  "compiler": {
    "name": "solc",
    "version": "0.5.16+commit.9c3226ce.Emscripten.clang"
  },
  "schemaVersion": "3.3.1",
  "updatedAt": "2020-11-15T15:27:17.436Z",
  "networkType": "ethereum",
  "devdoc": {
    "author": "Marc-Antoine Lemaire from Company IP Convergence",
    "methods": {
      "constructor": {
        "details": "Constructor of the ODTAValidator SmartContract"
      },
      "getDataAsset(bytes32)": {
        "details": "Function in charge of inserting a Data Asset on SC",
        "params": {
          "_dataAssetID": "Hash of the dataAssetValue"
        },
        "return": "_dataAssetProducerID Address of the Data Producer_dataAssetAccessType :Type of access {free, paying}_dataAssetAccessPrice :Price in Ether set by the Data Producer to access the Data Asset, if paying one_dataAssetAccessDuration :Duration of the access in number of days_proofOfIntegrigyDataAsset :Hash of the DataAssetValue_proofOfSourceAuthenticity :Address of the dataAssetProducerID, Etherum address_proofOfIntegrityUseProcessingConditions :Hash of Use and Processing Conditions of the data Asset"
      },
      "getDataAssetAccess(bytes32,address)": {
        "details": "Function in charge of geting the access type for a dataAssetID, so knowing if {free, paying}",
        "params": {
          "_dataAssetConsumerID": "Address of the consumer we want to know if he has received the access from the Data Producer",
          "_dataAssetID": "Hash of the dataAssetValue a DataConsumer is trying to Access"
        },
        "return": "_access Boolean indicating if the dataAssetConsumerID has access to the _dataAssetID"
      },
      "getDataAssetAccessType(bytes32)": {
        "details": "Function in charge of geting the access type for a dataAssetID, so knowing if {free, paying}",
        "params": {
          "_dataAssetID": "Hash of the dataAssetValue a DataConsumer is trying to Access"
        },
        "return": "_dataAssetAccessType the type of access {free, paying} to access the Data Asset"
      },
      "getDataAssetTotal()": {
        "details": "Function in charge of getting the number of Data Asset currently manage by the ODTA Registry",
        "return": "_dataAssetTotal uint256 indicating the total number of Data Asset anchored on the ODTA Registy"
      },
      "insertDataAsset(bytes32,address,string,uint256,string,bytes32,bytes32,bytes32)": {
        "details": "Function in charge of inserting a Data Asset on SC",
        "params": {
          "_dataAssetAccessDuration": "Duration of the access in number of days",
          "_dataAssetAccessPrice": "Price in Ether set by the Data Producer to access the Data Asset, if paying one",
          "_dataAssetAccessType": "Type of access {free, paying}",
          "_dataAssetID": "Hash of the Data Asset ",
          "_dataAssetProducerID": "Address of the dataAsset",
          "_proofOfIntegrigyDataAsset": "Hash of the DataAssetValue",
          "_proofOfIntegrityUseProcessingConditions": "Hash of Use and Processing Conditions of the data Asset",
          "_proofOfSourceAuthenticity": "Address of the dataAssetProducerID, Etherum address"
        }
      }
    },
    "title": "ODTAValidator SC is in charge of managing DataAsset Trust Anchors"
  },
  "userdoc": {
    "methods": {
      "setDataAssetAccess(bytes32,address,bool)": {
        "notice": "!!! Not sure I need this because it is automatically authorized inside the function payToAccessDataAsset"
      }
    },
    "notice": "version 0.1, on 1 november 2020"
  }
}