{
  "contractName": "ODTAStorage",
  "abi": [
    {
      "inputs": [],
      "name": "ODTAStorage_DIAMOND_STORAGE_POSITION",
      "outputs": [
        {
          "internalType": "bytes32",
          "name": "",
          "type": "bytes32"
        }
      ],
      "stateMutability": "view",
      "type": "function"
    }
  ],
  "bytecode": "0x6080604052348015600f57600080fd5b5060a38061001e6000396000f3fe6080604052348015600f57600080fd5b506004361060285760003560e01c806347c0f16a14602d575b600080fd5b60336049565b6040518082815260200191505060405180910390f35b7f2d92e48e8c28bb87829b51224aebace634878300f0c592fa86dd273fdc07b61b8156fea26469706673582212207144255c4f030fab0ff88689e888b1797802538ba1356b40b71e213ff4ec042f64736f6c63430007000033",
  "immutableReferences": {},
  "source": "// SPDX-License-Identifier: EUPL V1.2\n//pragma solidity ^0.5.16;\npragma solidity ^0.7.0;\n\n/** @title ODTAStorage SC is in charge of managing Diamond Storage Capability for the Trust Anchors\n    @author Marc-Antoine Lemaire from Company IP Convergence\n    @notice version 0.1, on 17 november 2020\n */\ncontract ODTAStorage {\n    // State variable to have a unique position on memory to store the struct\n    bytes32 public constant ODTAStorage_DIAMOND_STORAGE_POSITION = keccak256(\n        \"diamond.standard.ODTA.storage\"\n    );\n\n    struct ODTA {\n        uint256 _version;\n    }\n\n     /** @dev Funtion that creates a Diamond Storage to store the ODTA struct and returns the storage pointer to the ODTA Struct\n    */\n    function odtaStorage() internal pure returns (ODTA storage ms) {\n        bytes32 position = ODTAStorage_DIAMOND_STORAGE_POSITION;\n        assembly {\n            ms.slot := position\n        }\n    }\n}",
  "sourcePath": "/Users/lemaima/Documents/devTest/TrustedDistributedOpenDataRegistry/contracts/ODTAStorage.sol",
  "compiler": {
    "name": "solc",
    "version": "0.7.0+commit.9e61f92b.Emscripten.clang"
  },
  "schemaVersion": "3.3.2",
  "updatedAt": "2020-11-17T20:09:39.548Z",
  "devdoc": {
    "author": "Marc-Antoine Lemaire from Company IP Convergence",
    "kind": "dev",
    "methods": {},
    "title": "ODTAStorage SC is in charge of managing Diamond Storage Capability for the Trust Anchors",
    "version": 1
  },
  "userdoc": {
    "kind": "user",
    "methods": {},
    "notice": "version 0.1, on 17 november 2020",
    "version": 1
  }
}