{
  "contractName": "ODTAValidator",
  "abi": [
    {
      "inputs": [],
      "payable": false,
      "stateMutability": "nonpayable",
      "type": "constructor"
    },
    {
      "anonymous": false,
      "inputs": [
        {
          "indexed": false,
          "internalType": "address",
          "name": "_dataAssetProducerID",
          "type": "address"
        },
        {
          "indexed": false,
          "internalType": "address",
          "name": "_dataAssetConsumerID",
          "type": "address"
        },
        {
          "indexed": false,
          "internalType": "bytes32",
          "name": "_dataAssetID",
          "type": "bytes32"
        },
        {
          "indexed": false,
          "internalType": "uint256",
          "name": "value",
          "type": "uint256"
        }
      ],
      "name": "eventDataAccessPaidFailure",
      "type": "event"
    },
    {
      "anonymous": false,
      "inputs": [
        {
          "indexed": false,
          "internalType": "address",
          "name": "_dataAssetProducerID",
          "type": "address"
        },
        {
          "indexed": false,
          "internalType": "address",
          "name": "_dataAssetConsumerID",
          "type": "address"
        },
        {
          "indexed": false,
          "internalType": "bytes32",
          "name": "_dataAssetID",
          "type": "bytes32"
        },
        {
          "indexed": false,
          "internalType": "uint256",
          "name": "value",
          "type": "uint256"
        }
      ],
      "name": "eventDataAccessPaidSuccessfull",
      "type": "event"
    },
    {
      "anonymous": false,
      "inputs": [
        {
          "indexed": false,
          "internalType": "address",
          "name": "_dataAssetProducerID",
          "type": "address"
        },
        {
          "indexed": false,
          "internalType": "address",
          "name": "_dataAssetConsumerID",
          "type": "address"
        },
        {
          "indexed": false,
          "internalType": "bytes32",
          "name": "_dataAssetID",
          "type": "bytes32"
        }
      ],
      "name": "eventGetDataAccess",
      "type": "event"
    },
    {
      "anonymous": false,
      "inputs": [
        {
          "indexed": false,
          "internalType": "address",
          "name": "_dataAssetProducerID",
          "type": "address"
        },
        {
          "indexed": false,
          "internalType": "address",
          "name": "_dataAssetConsumerID",
          "type": "address"
        },
        {
          "indexed": false,
          "internalType": "bytes32",
          "name": "_dataAssetID",
          "type": "bytes32"
        }
      ],
      "name": "eventSetDataAccess",
      "type": "event"
    },
    {
      "constant": true,
      "inputs": [
        {
          "internalType": "bytes32",
          "name": "",
          "type": "bytes32"
        },
        {
          "internalType": "address",
          "name": "",
          "type": "address"
        }
      ],
      "name": "dataAssetAccessStore",
      "outputs": [
        {
          "internalType": "bool",
          "name": "dataAssetAccessStatus",
          "type": "bool"
        },
        {
          "internalType": "string",
          "name": "dataAssetAccessStartDate",
          "type": "string"
        },
        {
          "internalType": "string",
          "name": "dataAssetAccessEndDate",
          "type": "string"
        }
      ],
      "payable": false,
      "stateMutability": "view",
      "type": "function"
    },
    {
      "constant": true,
      "inputs": [
        {
          "internalType": "bytes32",
          "name": "",
          "type": "bytes32"
        }
      ],
      "name": "dataAssetIDList",
      "outputs": [
        {
          "internalType": "bool",
          "name": "",
          "type": "bool"
        }
      ],
      "payable": false,
      "stateMutability": "view",
      "type": "function"
    },
    {
      "constant": true,
      "inputs": [
        {
          "internalType": "bytes32",
          "name": "",
          "type": "bytes32"
        }
      ],
      "name": "dataAssetStore",
      "outputs": [
        {
          "internalType": "address payable",
          "name": "dataAssetProducerID",
          "type": "address"
        },
        {
          "internalType": "enum ODTAValidator.accessType",
          "name": "dataAssetAccessType",
          "type": "uint8"
        },
        {
          "internalType": "uint256",
          "name": "dataAssetAccessPrice",
          "type": "uint256"
        },
        {
          "internalType": "string",
          "name": "dataAssetAccessDuration",
          "type": "string"
        },
        {
          "internalType": "bytes32",
          "name": "proofOfIntegrigyDataAsset",
          "type": "bytes32"
        },
        {
          "internalType": "bytes32",
          "name": "proofOfSourceAuthenticity",
          "type": "bytes32"
        },
        {
          "internalType": "bytes32",
          "name": "proofOfIntegrityUseProcessingConditions",
          "type": "bytes32"
        }
      ],
      "payable": false,
      "stateMutability": "view",
      "type": "function"
    },
    {
      "constant": true,
      "inputs": [
        {
          "internalType": "address",
          "name": "",
          "type": "address"
        },
        {
          "internalType": "bytes32",
          "name": "",
          "type": "bytes32"
        }
      ],
      "name": "dataProducerStore",
      "outputs": [
        {
          "internalType": "bool",
          "name": "",
          "type": "bool"
        }
      ],
      "payable": false,
      "stateMutability": "view",
      "type": "function"
    },
    {
      "constant": false,
      "inputs": [
        {
          "internalType": "bytes32",
          "name": "_dataAssetID",
          "type": "bytes32"
        },
        {
          "internalType": "address payable",
          "name": "_dataAssetProducerID",
          "type": "address"
        },
        {
          "internalType": "string",
          "name": "_dataAssetAccessType",
          "type": "string"
        },
        {
          "internalType": "uint256",
          "name": "_dataAssetAccessPrice",
          "type": "uint256"
        },
        {
          "internalType": "string",
          "name": "_dataAssetAccessDuration",
          "type": "string"
        },
        {
          "internalType": "bytes32",
          "name": "_proofOfIntegrigyDataAsset",
          "type": "bytes32"
        },
        {
          "internalType": "bytes32",
          "name": "_proofOfSourceAuthenticity",
          "type": "bytes32"
        },
        {
          "internalType": "bytes32",
          "name": "_proofOfIntegrityUseProcessingConditions",
          "type": "bytes32"
        }
      ],
      "name": "insertDataAsset",
      "outputs": [],
      "payable": false,
      "stateMutability": "nonpayable",
      "type": "function"
    },
    {
      "constant": false,
      "inputs": [
        {
          "internalType": "bytes32",
          "name": "_dataAssetID",
          "type": "bytes32"
        }
      ],
      "name": "getDataAsset",
      "outputs": [
        {
          "internalType": "address",
          "name": "_dataAssetProducerID",
          "type": "address"
        },
        {
          "internalType": "string",
          "name": "_dataAssetAccessType",
          "type": "string"
        },
        {
          "internalType": "uint256",
          "name": "_dataAssetAccessPrice",
          "type": "uint256"
        },
        {
          "internalType": "string",
          "name": "_dataAssetAccessDuration",
          "type": "string"
        },
        {
          "internalType": "bytes32",
          "name": "_proofOfIntegrigyDataAsset",
          "type": "bytes32"
        },
        {
          "internalType": "bytes32",
          "name": "_proofOfSourceAuthenticity",
          "type": "bytes32"
        },
        {
          "internalType": "bytes32",
          "name": "_proofOfIntegrityUseProcessingConditions",
          "type": "bytes32"
        }
      ],
      "payable": false,
      "stateMutability": "nonpayable",
      "type": "function"
    },
    {
      "constant": true,
      "inputs": [
        {
          "internalType": "bytes32",
          "name": "_dataAssetID",
          "type": "bytes32"
        }
      ],
      "name": "getDataAssetAccessType",
      "outputs": [
        {
          "internalType": "string",
          "name": "_dataAssetAccessType",
          "type": "string"
        }
      ],
      "payable": false,
      "stateMutability": "view",
      "type": "function"
    },
    {
      "constant": false,
      "inputs": [
        {
          "internalType": "bytes32",
          "name": "_dataAssetID",
          "type": "bytes32"
        },
        {
          "internalType": "address",
          "name": "_dataAssetConsumerID",
          "type": "address"
        }
      ],
      "name": "insertDataAssetAccess",
      "outputs": [],
      "payable": false,
      "stateMutability": "nonpayable",
      "type": "function"
    },
    {
      "constant": false,
      "inputs": [
        {
          "internalType": "bytes32",
          "name": "_dataAssetID",
          "type": "bytes32"
        },
        {
          "internalType": "address payable",
          "name": "_toDestination",
          "type": "address"
        }
      ],
      "name": "payToAccessDataAsset",
      "outputs": [],
      "payable": true,
      "stateMutability": "payable",
      "type": "function"
    }
  ],
  "bytecode": "0x608060405234801561001057600080fd5b50336000806101000a81548173ffffffffffffffffffffffffffffffffffffffff021916908373ffffffffffffffffffffffffffffffffffffffff160217905550611b52806100606000396000f3fe6080604052600436106100865760003560e01c80639e903ca4116100595780639e903ca41461040b578063a052353f14610459578063a709703d146104b4578063ca3cf27e146105cc578063fc7e1e041461077e57610086565b8063076c82121461008b578063533e6711146101d6578063942001fc1461022957806394ea75f514610398575b600080fd5b34801561009757600080fd5b506100e4600480360360408110156100ae57600080fd5b8101908080359060200190929190803573ffffffffffffffffffffffffffffffffffffffff169060200190929190505050610832565b60405180841515151581526020018060200180602001838103835285818151815260200191508051906020019080838360005b83811015610132578082015181840152602081019050610117565b50505050905090810190601f16801561015f5780820380516001836020036101000a031916815260200191505b50838103825284818151815260200191508051906020019080838360005b8381101561019857808201518184015260208101905061017d565b50505050905090810190601f1680156101c55780820380516001836020036101000a031916815260200191505b509550505050505060405180910390f35b3480156101e257600080fd5b5061020f600480360360208110156101f957600080fd5b81019080803590602001909291905050506109a6565b604051808215151515815260200191505060405180910390f35b34801561023557600080fd5b506102626004803603602081101561024c57600080fd5b81019080803590602001909291905050506109c6565b604051808873ffffffffffffffffffffffffffffffffffffffff1673ffffffffffffffffffffffffffffffffffffffff1681526020018060200187815260200180602001868152602001858152602001848152602001838103835289818151815260200191508051906020019080838360005b838110156102f05780820151818401526020810190506102d5565b50505050905090810190601f16801561031d5780820380516001836020036101000a031916815260200191505b50838103825287818151815260200191508051906020019080838360005b8381101561035657808201518184015260208101905061033b565b50505050905090810190601f1680156103835780820380516001836020036101000a031916815260200191505b50995050505050505050505060405180910390f35b3480156103a457600080fd5b506103f1600480360360408110156103bb57600080fd5b81019080803573ffffffffffffffffffffffffffffffffffffffff16906020019092919080359060200190929190505050610cee565b604051808215151515815260200191505060405180910390f35b6104576004803603604081101561042157600080fd5b8101908080359060200190929190803573ffffffffffffffffffffffffffffffffffffffff169060200190929190505050610d1d565b005b34801561046557600080fd5b506104b26004803603604081101561047c57600080fd5b8101908080359060200190929190803573ffffffffffffffffffffffffffffffffffffffff16906020019092919050505061116e565b005b3480156104c057600080fd5b506104ed600480360360208110156104d757600080fd5b8101908080359060200190929190505050611429565b604051808873ffffffffffffffffffffffffffffffffffffffff1673ffffffffffffffffffffffffffffffffffffffff16815260200187600181111561052f57fe5b60ff16815260200186815260200180602001858152602001848152602001838152602001828103825286818151815260200191508051906020019080838360005b8381101561058b578082015181840152602081019050610570565b50505050905090810190601f1680156105b85780820380516001836020036101000a031916815260200191505b509850505050505050505060405180910390f35b3480156105d857600080fd5b5061077c60048036036101008110156105f057600080fd5b8101908080359060200190929190803573ffffffffffffffffffffffffffffffffffffffff1690602001909291908035906020019064010000000081111561063757600080fd5b82018360208201111561064957600080fd5b8035906020019184600183028401116401000000008311171561066b57600080fd5b91908080601f016020809104026020016040519081016040528093929190818152602001838380828437600081840152601f19601f82011690508083019250505050505050919291929080359060200190929190803590602001906401000000008111156106d857600080fd5b8201836020820111156106ea57600080fd5b8035906020019184600183028401116401000000008311171561070c57600080fd5b91908080601f016020809104026020016040519081016040528093929190818152602001838380828437600081840152601f19601f820116905080830192505050505050509192919290803590602001909291908035906020019092919080359060200190929190505050611530565b005b34801561078a57600080fd5b506107b7600480360360208110156107a157600080fd5b810190808035906020019092919050505061194e565b6040518080602001828103825283818151815260200191508051906020019080838360005b838110156107f75780820151818401526020810190506107dc565b50505050905090810190601f1680156108245780820380516001836020036101000a031916815260200191505b509250505060405180910390f35b6004602052816000526040600020602052806000526040600020600091509150508060000160009054906101000a900460ff1690806001018054600181600116156101000203166002900480601f0160208091040260200160405190810160405280929190818152602001828054600181600116156101000203166002900480156108fe5780601f106108d3576101008083540402835291602001916108fe565b820191906000526020600020905b8154815290600101906020018083116108e157829003601f168201915b505050505090806002018054600181600116156101000203166002900480601f01602080910402602001604051908101604052809291908181526020018280546001816001161561010002031660029004801561099c5780601f106109715761010080835404028352916020019161099c565b820191906000526020600020905b81548152906001019060200180831161097f57829003601f168201915b5050505050905083565b60026020528060005260406000206000915054906101000a900460ff1681565b6000606060006060600080600060011515600260008a815260200190815260200160002060009054906101000a900460ff1615151415610ce35760006001811115610a0d57fe5b600360008a815260200190815260200160002060000160149054906101000a900460ff166001811115610a3c57fe5b1415610a7b576040518060400160405280600481526020017f667265650000000000000000000000000000000000000000000000000000000081525095505b600180811115610a8757fe5b600360008a815260200190815260200160002060000160149054906101000a900460ff166001811115610ab657fe5b1415610af5576040518060400160405280600681526020017f706179696e67000000000000000000000000000000000000000000000000000081525095505b6003600089815260200190815260200160002060000160009054906101000a900473ffffffffffffffffffffffffffffffffffffffff16965060036000898152602001908152602001600020600101549450600360008981526020019081526020016000206002018054600181600116156101000203166002900480601f016020809104026020016040519081016040528092919081815260200182805460018160011615610100020316600290048015610bf15780601f10610bc657610100808354040283529160200191610bf1565b820191906000526020600020905b815481529060010190602001808311610bd457829003601f168201915b505050505093506003600089815260200190815260200160002060030154925060036000898152602001908152602001600020600401549150600360008981526020019081526020016000206005015490507f9041ba882825a1e4c00c9111dfd021207430bb9cc83d1146e299d6c24236d4d387338a604051808473ffffffffffffffffffffffffffffffffffffffff1673ffffffffffffffffffffffffffffffffffffffff1681526020018373ffffffffffffffffffffffffffffffffffffffff1673ffffffffffffffffffffffffffffffffffffffff168152602001828152602001935050505060405180910390a15b919395979092949650565b60016020528160005260406000206020528060005260406000206000915091509054906101000a900460ff1681565b8160016002600083815260200190815260200160002060006101000a81548160ff0219169083151502179055610d5257600080fd5b600115156004600085815260200190815260200160002060003373ffffffffffffffffffffffffffffffffffffffff1673ffffffffffffffffffffffffffffffffffffffff16815260200190815260200160002060000160009054906101000a900460ff16151514158015610e2857508173ffffffffffffffffffffffffffffffffffffffff166003600085815260200190815260200160002060000160009054906101000a900473ffffffffffffffffffffffffffffffffffffffff1673ffffffffffffffffffffffffffffffffffffffff16145b15611169576003600084815260200190815260200160002060010154341015610eb9576040517f08c379a00000000000000000000000000000000000000000000000000000000081526004018080602001828103825260128152602001807f496e73756666696369656e742066756e6473000000000000000000000000000081525060200191505060405180910390fd5b60008273ffffffffffffffffffffffffffffffffffffffff166108fc349081150290604051600060405180830381858888f19350505050905080610f65576040517f08c379a00000000000000000000000000000000000000000000000000000000081526004018080602001828103825260148152602001807f4661696c656420746f2073656e6420457468657200000000000000000000000081525060200191505060405180910390fd5b600115158115151415611066577fa8f5f505eb5a31734c928f2b90412c7347131a40ec3e91a8582b9b87c0e634196003600086815260200190815260200160002060000160009054906101000a900473ffffffffffffffffffffffffffffffffffffffff1633866003600089815260200190815260200160002060010154604051808573ffffffffffffffffffffffffffffffffffffffff1673ffffffffffffffffffffffffffffffffffffffff1681526020018473ffffffffffffffffffffffffffffffffffffffff1673ffffffffffffffffffffffffffffffffffffffff16815260200183815260200182815260200194505050505060405180910390a15b600115158115151415611167577f64d54cdfb96aa1d4dc4bb5f50888f5f0e9d5d38d75a586a3b8de9a19a2ff39c96003600086815260200190815260200160002060000160009054906101000a900473ffffffffffffffffffffffffffffffffffffffff1633866003600089815260200190815260200160002060010154604051808573ffffffffffffffffffffffffffffffffffffffff1673ffffffffffffffffffffffffffffffffffffffff1681526020018473ffffffffffffffffffffffffffffffffffffffff1673ffffffffffffffffffffffffffffffffffffffff16815260200183815260200182815260200194505050505060405180910390a15b505b505050565b8160018060003373ffffffffffffffffffffffffffffffffffffffff1673ffffffffffffffffffffffffffffffffffffffff168152602001908152602001600020600083815260200190815260200160002060006101000a81548160ff02191690831515021790556111df57600080fd5b60016004600085815260200190815260200160002060008473ffffffffffffffffffffffffffffffffffffffff1673ffffffffffffffffffffffffffffffffffffffff16815260200190815260200160002060000160006101000a81548160ff0219169083151502179055506040518060400160405280600d81526020017f436f6d696e6746656174757265000000000000000000000000000000000000008152506004600085815260200190815260200160002060008473ffffffffffffffffffffffffffffffffffffffff1673ffffffffffffffffffffffffffffffffffffffff16815260200190815260200160002060010190805190602001906112e7929190611a78565b506040518060400160405280600d81526020017f436f6d696e6746656174757265000000000000000000000000000000000000008152506004600085815260200190815260200160002060008473ffffffffffffffffffffffffffffffffffffffff1673ffffffffffffffffffffffffffffffffffffffff1681526020019081526020016000206002019080519060200190611384929190611a78565b507f5509a60277495dcdc76b70c446103629557b7ad207d3e78ca3300f3fa8320ef9338385604051808473ffffffffffffffffffffffffffffffffffffffff1673ffffffffffffffffffffffffffffffffffffffff1681526020018373ffffffffffffffffffffffffffffffffffffffff1673ffffffffffffffffffffffffffffffffffffffff168152602001828152602001935050505060405180910390a1505050565b60036020528060005260406000206000915090508060000160009054906101000a900473ffffffffffffffffffffffffffffffffffffffff16908060000160149054906101000a900460ff1690806001015490806002018054600181600116156101000203166002900480601f0160208091040260200160405190810160405280929190818152602001828054600181600116156101000203166002900480156115145780601f106114e957610100808354040283529160200191611514565b820191906000526020600020905b8154815290600101906020018083116114f757829003601f168201915b5050505050908060030154908060040154908060050154905087565b863373ffffffffffffffffffffffffffffffffffffffff168173ffffffffffffffffffffffffffffffffffffffff161461156957600080fd5b60011515600160008a73ffffffffffffffffffffffffffffffffffffffff1673ffffffffffffffffffffffffffffffffffffffff16815260200190815260200160002060008b815260200190815260200160002060009054906101000a900460ff16151514611943576001600260008b815260200190815260200160002060006101000a81548160ff02191690831515021790555060018060008a73ffffffffffffffffffffffffffffffffffffffff1673ffffffffffffffffffffffffffffffffffffffff16815260200190815260200160002060008b815260200190815260200160002060006101000a81548160ff02191690831515021790555087600360008b815260200190815260200160002060000160006101000a81548173ffffffffffffffffffffffffffffffffffffffff021916908373ffffffffffffffffffffffffffffffffffffffff16021790555060405160200180807f6672656500000000000000000000000000000000000000000000000000000000815250600401905060405160208183030381529060405280519060200120876040516020018082805190602001908083835b602083106117395780518252602082019150602081019050602083039250611716565b6001836020036101000a0380198251168184511680821785525050505050509050019150506040516020818303038152906040528051906020012014156117b3576000600360008b815260200190815260200160002060000160146101000a81548160ff021916908360018111156117ad57fe5b02179055505b60405160200180807f706179696e670000000000000000000000000000000000000000000000000000815250600601905060405160208183030381529060405280519060200120876040516020018082805190602001908083835b60208310611831578051825260208201915060208101905060208303925061180e565b6001836020036101000a0380198251168184511680821785525050505050509050019150506040516020818303038152906040528051906020012014156118ab576001600360008b815260200190815260200160002060000160146101000a81548160ff021916908360018111156118a557fe5b02179055505b85600360008b81526020019081526020016000206001018190555084600360008b815260200190815260200160002060020190805190602001906118f0929190611a78565b5083600360008b81526020019081526020016000206003018190555082600360008b81526020019081526020016000206004018190555081600360008b8152602001908152602001600020600501819055505b505050505050505050565b6060600115156002600084815260200190815260200160002060009054906101000a900460ff1615151415611a73576000600181111561198a57fe5b6003600084815260200190815260200160002060000160149054906101000a900460ff1660018111156119b957fe5b14156119f8576040518060400160405280600481526020017f667265650000000000000000000000000000000000000000000000000000000081525090505b600180811115611a0457fe5b6003600084815260200190815260200160002060000160149054906101000a900460ff166001811115611a3357fe5b1415611a72576040518060400160405280600681526020017f706179696e67000000000000000000000000000000000000000000000000000081525090505b5b919050565b828054600181600116156101000203166002900490600052602060002090601f016020900481019282601f10611ab957805160ff1916838001178555611ae7565b82800160010185558215611ae7579182015b82811115611ae6578251825591602001919060010190611acb565b5b509050611af49190611af8565b5090565b611b1a91905b80821115611b16576000816000905550600101611afe565b5090565b9056fea265627a7a72315820f70eb3dbee9805f369c1a9ede889f4057d791a8212dbbefd97e01491feab4a3864736f6c63430005100032",
  "source": "// SPDX-License-Identifier: EUPL V1.2\npragma solidity <=0.8.0;\n\n/** @title ODTAValidator SC is in charge of managing DataAsset Trust Anchors\n    @author Marc-Antoine Lemaire from Company IP Convergence\n    @notice version 0.1, on 1 november 2020\n */\ncontract ODTAValidator { \n// ------------ Define the States Variables of the SC ----------------\n\n// -- Objects used by Data Producer --\n    address owner;\n    /// dataProducerStore = mapping of dataProducerID Address to mapping of Hash Data Asset produced by him set to true to indicate produced\n    mapping (address => mapping(bytes32 => bool)) public dataProducerStore;\n    /// dataProdudcerDataAssetList = An array of dataAssetID produced by a dataProducerID\n    /// !!! To Be Potentially suppress   bytes32[] public dataProducerDataAssetList;\n\n// -- Objects used for managing Data Asset --\n    /// dataAssetIDList = mapping of all the dataAssetID managed by the SC. It has value true if present\n    /// !!! to check if needed because overlap with dataProducerStore[dataAssetProducerID][dataAsset]\n    mapping (bytes32 => bool) public dataAssetIDList;\n    /// accessType : enum saying if the access is free or you must pay\n    enum accessType {free, paying}\n    /// dataAssetObject = structure that containes all required Data Asset Information to manage Trust and access control from SC\n    struct dataAssetObject{\n        address payable dataAssetProducerID;\n        accessType dataAssetAccessType;\n        uint256 dataAssetAccessPrice; // in Ether\n        string dataAssetAccessDuration; // in Number of days\n        bytes32 proofOfIntegrigyDataAsset;\n        bytes32 proofOfSourceAuthenticity;\n        bytes32 proofOfIntegrityUseProcessingConditions;\n    }\n    /// dataAssetStore = mapping of all the dataAssetID (Hash of DataAsset) and their linked dataAssetObject\n    mapping (bytes32 => dataAssetObject) public dataAssetStore;\n\n// -- Objects used for managing Access to the Data Asset (only records for dataAssetAccessType = paying) --\n    /// dataAssetAccessObject = structure that contains the access parameter for a Data Asset, only if paying resource\n    struct dataAssetAccessObject{\n        bool dataAssetAccessStatus;\n        string dataAssetAccessStartDate;\n        string dataAssetAccessEndDate;\n    }\n    /// dataAssetAccessStore = mapping of all the dataAssetID to the mapping of their dataConsumerID address to their dataAssetAccessObject\n    /// ! if the dataAssetAccessType = Free, we don't created any entry on DataAssetAccessStore for the Data Asset\n    mapping (bytes32 => mapping(address => dataAssetAccessObject)) public dataAssetAccessStore;\n\n// -- Events needed to manage notification on operation on DataAsset --\n    /// eventSetDataAccess = event to be generated every time a DataAssetConsumerID give Access to a Data Asset to a Data Consumer\n    event eventSetDataAccess(address _dataAssetProducerID, address _dataAssetConsumerID, bytes32 _dataAssetID);\n    /// eventGetDataAccess = event to be generated every time a DataAssetConsumerID getAccess to a Data Asset\n    event eventGetDataAccess(address _dataAssetProducerID, address _dataAssetConsumerID, bytes32 _dataAssetID);\n    /// eventDataAccessPaidSuccessfull = event to be generated every time a a Data Consumer paid successfully for the access to a paying Data Asset\n    event eventDataAccessPaidSuccessfull(address _dataAssetProducerID, address _dataAssetConsumerID, bytes32 _dataAssetID, uint256 value);\n    /// eventDataAccessPaidFailure = event to be generated every time a a Data Consumer payment failed for the access to a paying Data Asset\n    event eventDataAccessPaidFailure(address _dataAssetProducerID, address _dataAssetConsumerID, bytes32 _dataAssetID, uint256 value);\n\n// -- Modifier needed to perfom different control on some SC Data Asset --\n    /// isOwner modifer: checks if the msg.sender is the owner of the contract\n    modifier isOwner() {\n        require(msg.sender == owner);\n        _;\n    }\n    /// isProducerOfExistingDataAsset: check if the msg.send is well the DataProducer of an existing DataAsset well present in dataProducerStore\n    modifier isProducerOfExistingDataAsset(bytes32 _dataAssetID){\n        require(dataProducerStore[msg.sender][_dataAssetID] = true);\n        _;\n    }\n    /// isDataProducer: check if the msg.send is the same as Data Asset requested producer\n    modifier isDataProducer(address _dataAssetProducerID){\n        require(_dataAssetProducerID ==msg.sender);\n        _;\n    }\n    /// isDataAssetExistInDataAssetIDList: check if a Data Asset is well presend in the DataAssetIDList\n    modifier isDataAssetExistInDataAssetIDList(bytes32 _dataAssetID){\n        require(dataAssetIDList[_dataAssetID]= true);\n        _;\n    }\n\n// ------------ Define functions of the SC ----------------\n\n    /** @dev Constructor of the ODTAValidator SmartContract\n    */\n    constructor() public{\n        /* set the owner as the person who instantiated the contract. */\n        owner = msg.sender;\n    }\n\n    /** @dev Function to enable account to send ether to this SmartContract via send, transfer or call\n     */ \n\n    /** @dev Function in charge of inserting a Data Asset on SC\n        @param _dataAssetID Hash of the Data Asset \n        @param _dataAssetProducerID Address of the dataAsset\n        @param _dataAssetAccessType Type of access {free, paying}\n        @param _dataAssetAccessPrice Price in Ether set by the Data Producer to access the Data Asset, if paying one\n        @param _dataAssetAccessDuration Duration of the access in number of days\n        @param _proofOfIntegrigyDataAsset Hash of the DataAssetValue\n        @param _proofOfSourceAuthenticity Address of the dataAssetProducerID, Etherum address\n        @param _proofOfIntegrityUseProcessingConditions Hash of Use and Processing Conditions of the data Asset\n     */\n     function insertDataAsset(\n                                bytes32 _dataAssetID,\n                                address payable _dataAssetProducerID,\n                                string memory _dataAssetAccessType,\n                                uint256 _dataAssetAccessPrice,\n                                string memory _dataAssetAccessDuration,\n                                bytes32 _proofOfIntegrigyDataAsset,\n                                bytes32 _proofOfSourceAuthenticity,\n                                bytes32 _proofOfIntegrityUseProcessingConditions) public isDataProducer(_dataAssetProducerID){\n        if(dataProducerStore[_dataAssetProducerID][_dataAssetID] != true){\n            dataAssetIDList[_dataAssetID]=true;\n            /// !!! could be overlap with dataAssetIDList (see what I choose)\n            dataProducerStore[_dataAssetProducerID][_dataAssetID]=true;\n            dataAssetStore[_dataAssetID].dataAssetProducerID=_dataAssetProducerID;\n            if(keccak256(abi.encodePacked(_dataAssetAccessType)) == keccak256(abi.encodePacked(\"free\"))){\n                dataAssetStore[_dataAssetID].dataAssetAccessType=accessType.free;\n            }\n            if(keccak256(abi.encodePacked(_dataAssetAccessType)) == keccak256(abi.encodePacked(\"paying\"))){\n                dataAssetStore[_dataAssetID].dataAssetAccessType=accessType.paying;\n            }\n            dataAssetStore[_dataAssetID].dataAssetAccessPrice=_dataAssetAccessPrice;\n            dataAssetStore[_dataAssetID].dataAssetAccessDuration=_dataAssetAccessDuration;\n            dataAssetStore[_dataAssetID].proofOfIntegrigyDataAsset=_proofOfIntegrigyDataAsset;\n            dataAssetStore[_dataAssetID].proofOfSourceAuthenticity=_proofOfSourceAuthenticity;\n            dataAssetStore[_dataAssetID].proofOfIntegrityUseProcessingConditions=_proofOfIntegrityUseProcessingConditions;\n        } /// !!! Add later on a try catch to give message is already in SC data\n    }\n\n    /** @dev Function in charge of inserting a Data Asset on SC\n        @param _dataAssetID Hash of the dataAssetValue\n        @return _dataAssetProducerID Address of the Data Producer\n        @return _dataAssetAccessType :Type of access {free, paying}\n        @return _dataAssetAccessPrice :Price in Ether set by the Data Producer to access the Data Asset, if paying one\n        @return _dataAssetAccessDuration :Duration of the access in number of days\n        @return _proofOfIntegrigyDataAsset :Hash of the DataAssetValue\n        @return _proofOfSourceAuthenticity :Address of the dataAssetProducerID, Etherum address\n        @return _proofOfIntegrityUseProcessingConditions :Hash of Use and Processing Conditions of the data Asset\n     */\n    function getDataAsset(bytes32 _dataAssetID) public returns (address _dataAssetProducerID,\n                                                                string memory _dataAssetAccessType,\n                                                                uint256 _dataAssetAccessPrice,\n                                                                string memory _dataAssetAccessDuration,\n                                                                bytes32 _proofOfIntegrigyDataAsset,\n                                                                bytes32 _proofOfSourceAuthenticity,\n                                                                bytes32 _proofOfIntegrityUseProcessingConditions){\n      if(dataAssetIDList[_dataAssetID]==true){\n            if(dataAssetStore[_dataAssetID].dataAssetAccessType == accessType.free){\n                _dataAssetAccessType=\"free\";\n            }\n            if(dataAssetStore[_dataAssetID].dataAssetAccessType == accessType.paying){\n               _dataAssetAccessType=\"paying\";\n            }\n            _dataAssetProducerID=dataAssetStore[_dataAssetID].dataAssetProducerID;\n            _dataAssetAccessPrice=dataAssetStore[_dataAssetID].dataAssetAccessPrice;\n            _dataAssetAccessDuration=dataAssetStore[_dataAssetID].dataAssetAccessDuration;\n            _proofOfIntegrigyDataAsset=dataAssetStore[_dataAssetID].proofOfIntegrigyDataAsset;\n            _proofOfSourceAuthenticity=dataAssetStore[_dataAssetID].proofOfSourceAuthenticity;\n            _proofOfIntegrityUseProcessingConditions=dataAssetStore[_dataAssetID].proofOfIntegrityUseProcessingConditions;\n            emit eventGetDataAccess(_dataAssetProducerID,msg.sender,_dataAssetID);\n      }                                                           \n    }\n    /** @dev Function in charge of geting the access type for a dataAssetID, so knowing if {free, paying}\n        @param _dataAssetID Hash of the dataAssetValue a DataConsumer is trying to Access\n        @return _dataAssetAccessType the type of access {free, paying} to access the Data Asset\n    */\n    function getDataAssetAccessType(bytes32 _dataAssetID) public view returns (string memory _dataAssetAccessType){\n        if(dataAssetIDList[_dataAssetID]==true){\n            if(dataAssetStore[_dataAssetID].dataAssetAccessType == accessType.free){\n                _dataAssetAccessType=\"free\";\n            }\n            if(dataAssetStore[_dataAssetID].dataAssetAccessType == accessType.paying){\n               _dataAssetAccessType=\"paying\";\n            }\n        } /// Add trow error is dataAssetID is not in dataAssetStore\n    }\n    /** @dev Function to give access to a Data Asset Consumer to a Data Asset. This function is called by the Data Asset Producer\n        @param _dataAssetID Hash of the dataAssetValue for which the Data Producer wants to give an authorization\n        @param _dataAssetConsumerID Address of the Dat Asset Consumer that could have the access (if free no access needed to be setup)\n    */\n    function insertDataAssetAccess(bytes32 _dataAssetID, address _dataAssetConsumerID) public isProducerOfExistingDataAsset(_dataAssetID){\n        dataAssetAccessStore[_dataAssetID][_dataAssetConsumerID].dataAssetAccessStatus=true;\n        dataAssetAccessStore[_dataAssetID][_dataAssetConsumerID].dataAssetAccessStartDate=\"ComingFeature\";\n        dataAssetAccessStore[_dataAssetID][_dataAssetConsumerID].dataAssetAccessEndDate=\"ComingFeature\";\n        /// event emitted to notify the _dataAssetConsumerID he has well received access to the Data Asset, following his succefull money transaction\n        emit eventSetDataAccess(msg.sender, _dataAssetConsumerID, _dataAssetID);\n    }\n    /** @dev Function to be called by the Data Consumer, to pay for accessing the Data Asset if the Data Producer has specify paying access conditions\n        @param _dataAssetID Hash of the dataAssetValue for which a user is going to pay for accessing it\n    */\n    function payToAccessDataAsset(bytes32 _dataAssetID, address payable _toDestination) public payable isDataAssetExistInDataAssetIDList(_dataAssetID){\n        if(dataAssetAccessStore[_dataAssetID][msg.sender].dataAssetAccessStatus!=true && dataAssetStore[_dataAssetID].dataAssetProducerID ==_toDestination){\n            require(msg.value >= dataAssetStore[_dataAssetID].dataAssetAccessPrice, \"Insufficient funds\");\n            bool sent = _toDestination.send(msg.value);\n            require(sent, \"Failed to send Ether\");\n            if(sent==true){\n                emit eventDataAccessPaidSuccessfull(dataAssetStore[_dataAssetID].dataAssetProducerID, msg.sender, _dataAssetID, dataAssetStore[_dataAssetID].dataAssetAccessPrice);\n            }\n            if(sent == true){\n                emit eventDataAccessPaidFailure(dataAssetStore[_dataAssetID].dataAssetProducerID, msg.sender, _dataAssetID, dataAssetStore[_dataAssetID].dataAssetAccessPrice);\n            }\n        } /// To be optimized later on because not secure for money transert\n    }\n\n}",
  "sourcePath": "/Users/lemaima/Documents/devTest/TrustedDistributedOpenDataRegistry/contracts/ODTAValidator.sol",
  "compiler": {
    "name": "solc",
    "version": "0.5.16+commit.9c3226ce.Emscripten.clang"
  },
  "schemaVersion": "3.3.1",
  "updatedAt": "2020-11-02T10:06:01.311Z",
  "devdoc": {
    "author": "Marc-Antoine Lemaire from Company IP Convergence",
    "methods": {
      "constructor": {
        "details": "Constructor of the ODTAValidator SmartContract"
      },
      "getDataAsset(bytes32)": {
        "details": "Function in charge of inserting a Data Asset on SC",
        "params": {
          "_dataAssetID": "Hash of the dataAssetValue"
        },
        "return": "_dataAssetProducerID Address of the Data Producer_dataAssetAccessType :Type of access {free, paying}_dataAssetAccessPrice :Price in Ether set by the Data Producer to access the Data Asset, if paying one_dataAssetAccessDuration :Duration of the access in number of days_proofOfIntegrigyDataAsset :Hash of the DataAssetValue_proofOfSourceAuthenticity :Address of the dataAssetProducerID, Etherum address_proofOfIntegrityUseProcessingConditions :Hash of Use and Processing Conditions of the data Asset"
      },
      "getDataAssetAccessType(bytes32)": {
        "details": "Function in charge of geting the access type for a dataAssetID, so knowing if {free, paying}",
        "params": {
          "_dataAssetID": "Hash of the dataAssetValue a DataConsumer is trying to Access"
        },
        "return": "_dataAssetAccessType the type of access {free, paying} to access the Data Asset"
      },
      "insertDataAsset(bytes32,address,string,uint256,string,bytes32,bytes32,bytes32)": {
        "details": "Function in charge of inserting a Data Asset on SC",
        "params": {
          "_dataAssetAccessDuration": "Duration of the access in number of days",
          "_dataAssetAccessPrice": "Price in Ether set by the Data Producer to access the Data Asset, if paying one",
          "_dataAssetAccessType": "Type of access {free, paying}",
          "_dataAssetID": "Hash of the Data Asset ",
          "_dataAssetProducerID": "Address of the dataAsset",
          "_proofOfIntegrigyDataAsset": "Hash of the DataAssetValue",
          "_proofOfIntegrityUseProcessingConditions": "Hash of Use and Processing Conditions of the data Asset",
          "_proofOfSourceAuthenticity": "Address of the dataAssetProducerID, Etherum address"
        }
      },
      "insertDataAssetAccess(bytes32,address)": {
        "details": "Function to give access to a Data Asset Consumer to a Data Asset. This function is called by the Data Asset Producer",
        "params": {
          "_dataAssetConsumerID": "Address of the Dat Asset Consumer that could have the access (if free no access needed to be setup)",
          "_dataAssetID": "Hash of the dataAssetValue for which the Data Producer wants to give an authorization"
        }
      },
      "payToAccessDataAsset(bytes32,address)": {
        "details": "Function to be called by the Data Consumer, to pay for accessing the Data Asset if the Data Producer has specify paying access conditions",
        "params": {
          "_dataAssetID": "Hash of the dataAssetValue for which a user is going to pay for accessing it"
        }
      }
    },
    "title": "ODTAValidator SC is in charge of managing DataAsset Trust Anchors"
  },
  "userdoc": {
    "methods": {},
    "notice": "version 0.1, on 1 november 2020"
  }
}